:100000000C949C000C94C4000C94C4000C94C40088
:100010000C94C4000C94C4000C94C4000C94C40050
:100020000C94C4000C94C4000C94C4000C94C40040
:100030000C94C4000C94C4000C94C4000C94C40030
:100040000C948E040C94C4000C940F070C94C40000
:100050000C94C4000C94C4000C94C4000C94C40010
:100060000C94C4000C94C40007634236B79BD8A715
:100070001A39685618AEBAAB558C1D3CB7CC5763CD
:10008000BD6DEDFD753EF6177231BF000000803F7B
:1000900008000000BE922449123EABAAAA2ABECD97
:1000A000CCCC4C3E00000080BEABAAAAAA3E000009
:1000B0000000BF000000803F000000000008417801
:1000C000D3BB4387D1133D190E3CC3BD4282AD2B38
:1000D0003E68EC8276BED98FE1A93E4C80EFFFBE30
:1000E00001C4FF7F3F0000000000000024272A0019
:1000F0000025282B000023262904040404040404FA
:1001000004020202020202030303030303010204C6
:100110000810204080010204081020010204081089
:100120002000000007000201000003040600000098
:10013000000000000000E60211241FBECFEFD4E053
:10014000DEBFCDBF11E0A0E0B1E0E2E2F5E102C028
:1001500005900D92AA32B107D9F713E0AAE2B1E0F7
:1001600001C01D92AC30B107E1F711E0C8E3D1E066
:1001700004C02297FE010E948B0AC633D107C9F73B
:100180000E94DF020C948F0A0C940000EAE2F1E076
:1001900080E001C0890F91919923E1F70895EF92D2
:1001A000FF920F931F93E0901701F09018010091B8
:1001B000190110911A01C801B701905820911B0133
:1001C00030911C0140911D0150911E010E94B10708
:1001D0000E941E08209113013091140140911501D5
:1001E000509116010E94B2099B01AC0160916E0210
:1001F00070916F0280917002909171020E94B1071C
:100200000E943F099B01AC01C801B7010E94B107E0
:1002100020E030E848E853E40E944C0760937602FF
:100220007093770280937802909379021F910F91D7
:10023000FF90EF900895EF92FF920F931F936091BC
:10024000660270916702882777FD8095982F0E943B
:100250004C087B018C0160916802709169028827CB
:1002600077FD8095982F0E944C089B01AC01C80136
:10027000B7010E94B10720E030E040E85FE30E9450
:100280004C0720911F013091200140912101509194
:1002900022010E94B20960936E0270936F028093F4
:1002A00070029093710260E071E08EE792E00E942C
:1002B0004E031F910F91FF90EF90089580E00E94F0
:1002C0006E05909367028093660281E00E946E053E
:1002D000909369028093680208950E945E010E94D3
:1002E0001B010E94CF00089560E082E00E94FE059D
:1002F000089561E082E00E94FE05089561E082E0D9
:100300000E94E00560E083E00E94E00561E084E097
:100310000E94E0050E94740108950E9479012091D5
:1003200060013091610188EE93E0289FB001299F20
:10033000700D389F700D112440915E0150915F0146
:1003400020E63AEEC901489F9001499F300D589F21
:10035000300D1124620F731F882777FD8095982F29
:100360000E94F9040E9474010895609162017091E5
:1003700063018EE792E00E945E0408950E94B50139
:100380008091620190916301019690936301809343
:10039000620108950E948D010E94BE010895CF92CE
:1003A000DF92EF92FF920F931F93CF93DF938C0115
:1003B00080916402809365020E94EB04060F171F70
:1003C0006801EE24D7FCE094FE2C10C080916402FA
:1003D000C82FD0E08EE792E00E94F402CC59DE4FA5
:1003E0008883809164028F5F809364020E94EB0493
:1003F0006C157D058E059F0538F48EE792E00E940E
:10040000F702882399F3E2CF80916402809365021A
:100410008FEF9FEFDF91CF911F910F91FF90EF90A2
:10042000DF90CF9008951F9310E020E030E043E08C
:1004300050E060E070E08EE792E00E946E0484E697
:1004400090E00E94CF018F5F9F4F59F420E030E091
:1004500047E050E060E070E08EE792E00E946E04BA
:1004600007C068E070E08EE792E00E9456041F5FCC
:100470001130D9F61F910895CF92DF92EF92FF923B
:100480000F931F938C010E94EB04060F171F680146
:10049000EE24D7FCE094FE2C8EE792E00E94F70257
:1004A0008823A9F40E94EB046C157D058E059F0539
:1004B00070F4F2CF8EE792E00E94F4029C01C90131
:1004C0001F910F91FF90EF90DF90CF9008958EE7EE
:1004D00092E00E94F702882369F72FEF3FEFEFCFFA
:1004E00020E030E040E850E060E070E08EE792E02D
:1004F0000E946E0420E030E046E050E060E070E0F2
:100500008EE792E00E946E0460910F0170911001DD
:100510008EE792E00E940F03E0910F01F09110012D
:1005200040E001C0480F81918823E1F74A5F50E025
:1005300060E070E020E030E08EE792E00E946E0420
:1005400020E030E041E850E060E070E08EE792E0CB
:100550000E946E0484E690E00E943C028130910586
:1005600021F481E08093110108958230910531F4E6
:1005700081E0809311010E94130208958F5F9F4FC5
:1005800051F420E030E047E050E060E070E08EE7BA
:1005900092E00E946E04089540E05BE460E070E049
:1005A0008EE792E00E94FA020E947E010E94700291
:1005B0000E945E010E941B010E94CF0008950E94CC
:1005C00031050E94CC020E94CA01FDCF87E291E072
:1005D00090937F0280937E020895862F0E94CE061C
:1005E00008950E94060708950E94E70608950E9454
:1005F000D6060895CB01BA010E9495060895DC0144
:10060000ED91FC910190F081E02D09950895DC01B8
:10061000ED91FC910190F081E02D099508950F93E3
:100620001F93CF93DF938C01EB0109C02196D80172
:10063000ED91FC910190F081E02DC8010995688150
:100640006623A1F7DF91CF911F910F9108950F932A
:100650001F938C01DC01ED91FC910190F081E02D64
:100660006DE00995D801ED91FC910190F081E02DAC
:100670006AE0C80109951F910F9108950F931F9388
:100680008C01DC01ED91FC910190F081E02D099548
:10069000C8010E9427031F910F9108950F931F9384
:1006A0008C010E940F03C8010E9427031F910F9124
:1006B00008950F931F938C01DC01ED91FC91019043
:1006C000F081E02D0995C8010E9427031F910F9129
:1006D00008952F923F924F925F926F927F928F92E6
:1006E0009F92AF92BF92CF92DF92EF92FF920F93C1
:1006F0001F93DF93CF93CDB7DEB7A0970FB6F894D3
:10070000DEBF0FBECDBF1C016A017B014115510543
:100710006105710549F4DC01ED91FC910190F081D6
:10072000E02D60E3099554C0882499245401422E99
:1007300055246624772401E010E00C0F1D1F080DDE
:10074000191DC701B601A30192010E94380AF801E0
:1007500060830894811C911CA11CB11CC701B601C7
:10076000A30192010E94380AC901DA016C017D01DE
:10077000C114D104E104F104F1F681E0E82EF12C7A
:10078000EC0EFD1EE80CF91C3E010894611C711C66
:10079000D501C4010197A109B1096C01C818D90894
:1007A00014C0F601EE0DFF1D60816A3010F4605D2B
:1007B00001C0695CD101ED91FC910190F081E02DC7
:1007C000C10109950894E108F1086E147F0449F706
:1007D000A0960FB6F894DEBF0FBECDBFCF91DF91CC
:1007E0001F910F91FF90EF90DF90CF90BF90AF904F
:1007F0009F908F907F906F905F904F903F902F9041
:1008000008952AE00E94690308950F931F938C01B5
:100810000E940104C8010E9427031F910F910895AF
:10082000AB0160E070E00E94010408950F931F93F4
:100830008C01AB0160E070E00E940104C8010E94DD
:1008400027031F910F910895EF92FF920F931F932B
:10085000CF93DF93EC017A018B0177FF0FC0E88122
:10086000F9810190F081E02D6DE2099510950095D8
:10087000F094E094E11CF11C011D111D2AE0B80167
:10088000A701CE010E946903DF91CF911F910F91C3
:10089000FF90EF9008950F931F938C010E94240402
:1008A000C8010E9427031F910F910895AB0166278D
:1008B00057FD6095762F0E94240408950F931F938F
:1008C0008C01AB01662757FD6095762F0E942404AA
:1008D000C8010E9427031F910F910895DC01211583
:1008E000310541F4ED91FC910190F081E02D642FF0
:1008F000099508952A30310519F40E9424040895B9
:100900000E94690308950F931F938C010E946E0447
:10091000C8010E9427031F910F9108951F920F9203
:100920000FB60F9211242F938F939F93AF93BF9382
:100930008091800290918102A0918202B091830205
:100940008050904CAF4FBF4F8093800290938102B4
:10095000A0938202B093830227C08091800290917D
:100960008102A0918202B091830280549F41A040F5
:10097000B0408093800290938102A0938202B09352
:1009800083028091840290918502A0918602B091A9
:1009900087020196A11DB11D809384029093850268
:1009A000A0938602B0938702809180029091810289
:1009B000A0918202B091830281549F41A040B04037
:1009C00060F6BF91AF919F918F912F910F900FBEC5
:1009D0000F901F9018958FB7F89420918402309152
:1009E000850240918602509187028FBFB901CA01EA
:1009F0000895EF92FF920F931F937B018C018FB7A5
:100A0000F894409184025091850260918602709121
:100A100087028FBF2FB7F89480918402909185024E
:100A2000A0918602B09187022FBF841B950BA60B65
:100A3000B70B8E159F05A007B10760F31F910F91AB
:100A4000FF90EF900895019759F0019749F0FC014C
:100A5000EE0FFF1F31978FB7F8943197F1F78FBFE3
:100A60000895789484B5826084BD84B5816084BD26
:100A700085B5826085BD85B5816085BDEEE6F0E017
:100A8000808181608083E1E8F0E080818260808302
:100A9000808181608083E0E8F0E0808181608083F4
:100AA000E1EBF0E0808184608083E0EBF0E0808126
:100AB00081608083EAE7F0E08081846080838081C8
:100AC0008260808380818160808380818068808370
:100AD0001092C10008958093290108958F7090911C
:100AE00029019295990F990F907C982B90937C00F7
:100AF00080917A00806480937A0080917A0086FDEC
:100B0000FCCF2091780040917900942F80E030E074
:100B1000282B392BC90108951F93CF93DF93182FEA
:100B2000EB0161E00E94E005E12FF0E0EF5DFE4F98
:100B30008491833051F4809180008068809380009C
:100B4000D0938900C093880037C0843051F48091DD
:100B50008000806280938000D0938B00C0938A00D5
:100B60002BC0813029F484B5806884BDC7BD24C002
:100B7000823029F484B5806284BDC8BD1DC0863032
:100B800041F48091B00080688093B000C093B300BE
:100B900013C0873041F48091B00080628093B00030
:100BA000C093B40009C0C038D10514F460E001C09E
:100BB00061E0812F0E94FE05DF91CF911F91089582
:100BC000282F30E0C901835F9E4FFC01949127508C
:100BD0003F4FF9018491882381F0E82FF0E0E6513E
:100BE000FF4FE491F0E0662329F4808190958923FA
:100BF000808308958081892B80830895482F50E059
:100C0000CA018F5D9E4FFC012491CA01835F9E4FF4
:100C1000FC01949147505F4FFA0134913323C1F1A5
:100C2000222331F1233021F4809180008F7705C099
:100C3000243031F4809180008F7D8093800018C033
:100C4000213019F484B58F7704C0223021F484B5A3
:100C50008F7D84BD0DC0263021F48091B0008F7748
:100C600005C0273029F48091B0008F7D8093B000BB
:100C7000E32FF0E0E151FF4FE491F0E0662329F427
:100C8000808190958923808308958081892B80833A
:100C90000895482F50E0CA018F5D9E4FFC012491BA
:100CA000CA01835F9E4FFC01949147505F4FFA0148
:100CB0003491332319F420E030E035C0222331F1A0
:100CC000233021F4809180008F7705C0243031F4E7
:100CD000809180008F7D8093800018C0213019F4AE
:100CE00084B58F7704C0223021F484B58F7D84BD14
:100CF0000DC0263021F48091B0008F7705C02730D9
:100D000029F48091B0008F7D8093B000E32FF0E054
:100D1000EC50FF4FE491F0E0808120E030E0892347
:100D200011F021E030E0C9010895EF92FF920F9396
:100D30001F937B018C0122E030E040E050E00E94F4
:100D40005A0A205E3E45484F5F4FCA01B901A801CB
:100D500097010E945A0AC901DA010197A109B10954
:100D6000292F3A2F4B2F552747FD5A950196A11D44
:100D7000B11D2093C50081508093C400E1ECF0E0E8
:100D800080818061808380818860808380818068A9
:100D900080831F910F91FF90EF900895982F80917D
:100DA000C00085FFFCCF9093C60008958091880213
:100DB0009091890280589F4F20918A0230918B0236
:100DC000821B930B60E870E00E94250A0895409111
:100DD0008A0250918B028091880290918902841737
:100DE000950719F42FEF3FEF0FC0FA01E457FD4FBD
:100DF0002081CA01019660E870E00E94250A909364
:100E00008B0280938A0230E0C901089580918A02A2
:100E100090918B02909389028093880208951F928B
:100E20000F920FB60F9211242F933F934F935F931E
:100E30006F937F938F939F93AF93BF93EF93FF93A2
:100E40004091C600E0918802F0918902CF0101969D
:100E500060E870E00E94250A9C0180918A029091CE
:100E60008B022817390739F0E457FD4F4083309340
:100E7000890220938802FF91EF91BF91AF919F91DA
:100E80008F917F916F915F914F913F912F910F9033
:100E90000FBE0F901F9018955058BB27AA270ED051
:100EA00072C163D130F068D120F031F49F3F11F46A
:100EB0001EF433C10EF4E095E7FB29C1E92F74D18C
:100EC00080F3BA17620773078407950718F071F467
:100ED0009EF58CC10EF4E0950B2EBA2FA02D0B01C0
:100EE000B90190010C01CA01A0011124FF27591B6F
:100EF00099F0593F50F4503E68F11A16F040A22F75
:100F0000232F342F4427585FF3CF469537952795E5
:100F1000A795F0405395C9F77EF41F16BA0B620BE4
:100F2000730B840BBAF09150A1F0FF0FBB1F661F2B
:100F3000771F881FC2F70EC0BA0F621F731F841F6E
:100F400048F4879577956795B795F7959E3F08F094
:100F5000B3CF9395880F08F09927EE0F9795879553
:100F600008950CD010C108D140F0FFD030F021F42A
:100F70005F3F19F0CCC051113AC1CFC015D198F3E1
:100F80009923C9F35523B1F3951B550BBB27AA270A
:100F900062177307840738F09F5F5F4F220F331F7C
:100FA000441FAA1FA9F333D00E2E3AF0E0E830D048
:100FB00091505040E695001CCAF729D0FE2F27D04B
:100FC000660F771F881FBB1F261737074807AB0719
:100FD000B0E809F0BB0B802DBF01FF2793585F4F8E
:100FE0002AF09E3F510568F092C001C15F3FECF3CB
:100FF000983EDCF3869577956795B795F7959F5F53
:10100000C9F7880F911D9695879597F90895E1E0A6
:10101000660F771F881FBB1F621773078407BA0705
:1010200020F0621B730B840BBA0BEE1F88F7E09560
:10103000089519F40EF06BC0D9C06FC0BDD0C8F3CD
:101040009638C0F707F80F92E8942BE33AEA48EB9A
:101050005FE796D10F920F920F924DB75EB70F9246
:101060004ED1E8E6F0E05CD04F915F91EF91FF91B7
:10107000E595EE1FFF1F49F0FE57E0684427EE0F8D
:10108000441FFA95E1F74195550BC0D00F9007FE2C
:10109000B4C00895E89409C097FB3EF490958095FC
:1010A000709561957F4F8F4F9F4F9923A9F0F92F2E
:1010B00096E9BB279395F695879577956795B795AC
:1010C000F111F8CFFAF4BB0F11F460FF1BC06F5F92
:1010D0007F4F8F4F9F4F16C0882311F096E911C0A4
:1010E000772321F09EE8872F762F05C0662371F0C5
:1010F00096E8862F70E060E02AF09A95660F771FD9
:10110000881FDAF7880F9695879597F9089597F9CC
:101110009F6780E870E060E008959FEF80EC08959D
:10112000DF93CF931F930F93FF92EF92DF927B0198
:101130008C01689405C0DA2EEF0120D1FE01E894FD
:10114000A5912591359145915591AEF3EF01B6DE0C
:10115000FE019701A801DA9479F7DF90EF90FF90F4
:101160000F911F91CF91DF91089500240A941616D4
:10117000170618060906089500240A941216130685
:10118000140605060895092E0394000C11F4882313
:1011900052F0BB0F40F4BF2B11F460FF04C06F5F2F
:1011A0007F4F8F4F9F4F089557FD9058440F551F05
:1011B00059F05F3F71F04795880F97FB991F61F0D9
:1011C0009F3F79F087950895121613061406551F50
:1011D000F2CF4695F1DF08C0161617061806991FBC
:1011E000F1CF86957105610508940895E894BB27B1
:1011F00066277727CB0197F908959B01AC0160E042
:1012000070E080E89FE3ADCE82CF0FC1D5DFE8F379
:101210009923D9F3940F511DBBF39150504094F092
:1012200059F0882332F0660F771F881F9150504085
:10123000C1F79E3F510544F7880F911D96958795FC
:1012400097F908955F3FACF0983E9CF0BB278695D8
:1012500077956795B79508F4B1609395C1F7BB0F83
:1012600058F711F460FFE8CF6F5F7F4F8F4F9F4FAC
:10127000E3CFBDCF0EF0D9C050CF689448CF9CDFEC
:10128000C8F39923D1F3C6F3DF93CF931F930F9342
:10129000FF92C92FDD2788232AF02197660F771F39
:1012A000881FDAF720E030E040E85FEB9FE3883901
:1012B00020F0803E30F021968F77EFDDE0E9F0E01E
:1012C00003C0EBDDEDEBF0E02BDF8B01BE01EC01A9
:1012D000FB2E6F5771097595771F880B990BDCDE14
:1012E00028E132E741E35FE349D0AF2D9801AE0139
:1012F000FF900F911F91CF91DF91E0DD44CFFA0174
:10130000DC01AA0FBB1F9B01AC01BF5728F42227A9
:101310003327442750781FC0B75188F4AB2F0024DF
:10132000469537952795011CA395D2F3002069F0C7
:10133000220F331F441FB395DAF30DD0ADCD6130CA
:101340007105A0E88A07B94630F49B01AC01662715
:10135000772788279078309621F020833183428345
:10136000538308950BD00FCF00DF28F005DF18F06E
:10137000952309F0CCCED1CE112439CF15DFA0F3BF
:10138000959FD1F3950F50E0551F629FF001729F1A
:10139000BB27F00DB11D639FAA27F00DB11DAA1F39
:1013A000649F6627B00DA11D661F829F2227B00D86
:1013B000A11D621F739FB00DA11D621F839FA00D11
:1013C000611D221F749F3327A00D611D231F849F61
:1013D000600D211D822F762F6A2F11249F575040B8
:1013E0008AF0E1F088234AF0EE0FFF1FBB1F661F53
:1013F000771F881F91505040A9F79E3F510570F00C
:1014000086CEF5CE5F3FECF3983EDCF3869577957C
:101410006795B795F795E7959F5FC1F7FE2B880F06
:10142000911D9695879597F908959F3F49F09150A2
:1014300028F4869577956795B7959F5F80389F4F7D
:10144000880F9695879597F9089597FB092E07269B
:101450000AD077FD04D049D006D000201AF4709548
:1014600061957F4F0895F6F7909581959F4F089568
:10147000A1E21A2EAA1BBB1BFD010DC0AA1FBB1F98
:10148000EE1FFF1FA217B307E407F50720F0A21B0A
:10149000B30BE40BF50B661F771F881F991F1A9477
:1014A00069F760957095809590959B01AC01BD01A1
:1014B000CF01089597FB092E05260ED057FD04D0C5
:1014C000D7DF0AD0001C38F450954095309521950F
:1014D0003F4F4F4F5F4F0895F6F790958095709569
:1014E00061957F4F8F4F9F4F0895AA1BBB1B51E102
:1014F00007C0AA1FBB1FA617B70710F0A61BB70B84
:10150000881F991F5A95A9F780959095BC01CD0128
:101510000895EE0FFF1F0590F491E02D0994F894C3
:02152000FFCFFB
:10152200776F6F686F6F2100616C6265727400087B
:1015320001010100401C4600E07645000095430091
:0A154200007A4400000000ED0201F1
:040000050080026510
:00000001FF
