:100000000C949C000C94C4000C94C4000C94C40088
:100010000C94C4000C94C4000C94C4000C94C40050
:100020000C94C4000C94C4000C94C4000C94C40040
:100030000C94C4000C94C4000C94C4000C94C40030
:100040000C94D3040C94C4000C9454070C94C40076
:100050000C94C4000C94C4000C94C4000C94C40010
:100060000C94C4000C94C40007634236B79BD8A715
:100070001A39685618AEBAAB558C1D3CB7CC5763CD
:10008000BD6DEDFD753EF6177231BF000000803F7B
:1000900008000000BE922449123EABAAAA2ABECD97
:1000A000CCCC4C3E00000080BEABAAAAAA3E000009
:1000B0000000BF000000803F000000000008417801
:1000C000D3BB4387D1133D190E3CC3BD4282AD2B38
:1000D0003E68EC8276BED98FE1A93E4C80EFFFBE30
:1000E00001C4FF7F3F0000000000000024272A0019
:1000F0000025282B000023262904040404040404FA
:1001000004020202020202030303030303010204C6
:100110000810204080010204081020010204081089
:100120002000000007000201000003040600000098
:100130000000000000002B0311241FBECFEFD4E00D
:10014000DEBFCDBF11E0A0E0B1E0EEE5FBE102C013
:1001500005900D92AE32B107D9F713E0AEE2B1E0EF
:1001600001C01D92A031B107E1F711E0C8E3D1E071
:1001700004C02297FE010E94720DC633D107C9F751
:100180000E9424030C94AD0D0C940000EEE2F1E00B
:1001900080E001C0890F91919923E1F70895EF92D2
:1001A000FF920F931F93E0901A01F0901B010091B2
:1001B0001C0110911D01C801B701905820911E012A
:1001C00030911F0140912001509121010E94980A15
:1001D0000E94050B209116013091170140911801E2
:1001E000509119010E94990C9B01AC01609172021F
:1001F0007091730280917402909175020E94980A26
:100200000E94260C9B01AC01C801B7010E94980A0C
:1002100020E030E848E853E40E94330A60937A0211
:1002200070937B0280937C0290937D021F910F91CB
:10023000FF90EF900895EF92FF920F931F936091BC
:100240006A0270916B02882777FD8095982F0E9433
:10025000330B7B018C0160916C0270916D028827D9
:1002600077FD8095982F0E94330B9B01AC01C8014C
:10027000B7010E94980A20E030E040E85FE30E9466
:10028000330A2091220130912301409124015091A1
:1002900025010E94990C60937202709373028093FF
:1002A00074029093750260E071E082E892E00E942F
:1002B00093031F910F91FF90EF90089580E00E94AB
:1002C000B30590936B0280936A0281E00E94B305AC
:1002D00090936D0280936C0208950E945E010E94CB
:1002E0001B010E94CF00089560E082E00E94430657
:1002F000089561E082E00E944306089561E082E093
:100300000E94250660E083E00E94250661E084E00B
:100310000E9425060E94740108950E94790120918F
:1003200064013091650188EE93E0289FB001299F18
:10033000700D389F700D112440916201509163013E
:1003400020E63AEEC901489F9001499F300D589F21
:10035000300D1124620F731F882777FD8095982F29
:100360000E943E050E9474010895CF92DF92EF92A1
:10037000FF920F931F93CF93DF938C0180916802BC
:10038000809369020E943005060F171F6801EE2452
:10039000D7FCE094FE2C10C080916802C82FD0E0FA
:1003A00082E892E00E943903C859DE4F8883809129
:1003B00068028F5F809368020E9430056C157D058E
:1003C0008E059F0538F482E892E00E943C03882362
:1003D00099F3E2CF80916802809369028FEF9FEFDB
:1003E000DF91CF911F910F91FF90EF90DF90CF9011
:1003F00008951F9310E020E030E043E050E060E01B
:1004000070E082E892E00E94B30484E690E00E94EB
:10041000B5018F5F9F4F59F420E030E047E050E096
:1004200060E070E082E892E00E94B30407C068E0F8
:1004300070E082E892E00E949B041F5F1130D9F6C1
:100440001F910895CF92DF92EF92FF920F931F9327
:100450008C010E943005060F171F6801EE24D7FC9F
:10046000E094FE2C82E892E00E943C038823A9F4E9
:100470000E9430056C157D058E059F0570F4F2CF46
:1004800082E892E00E9439039C01C9011F910F91FB
:10049000FF90EF90DF90CF90089582E892E00E9465
:1004A0003C03882369F72FEF3FEFEFCF20E030E0E8
:1004B00040E850E060E070E082E892E00E94B3041F
:1004C00020E030E046E050E060E070E082E892E05A
:1004D0000E94B304609112017091130182E892E0CE
:1004E0000E945403E0911201F091130140E001C019
:1004F000480F81918823E1F74A5F50E060E070E0A7
:1005000020E030E082E892E00E94B30420E030E096
:1005100041E850E060E070E082E892E00E94B304BD
:1005200084E690E00E9422028130910521F481E06E
:100530008093140108958230910531F481E0809315
:1005400014010E94F90108958F5F9F4F51F420E03C
:1005500030E047E050E060E070E082E892E00E9426
:10056000B30408950F931F938091660190916701E2
:100570009F938F9388E091E09F938F930EE211E019
:100580001F930F930E949107F80100E08DB79EB76B
:1005900006960FB6F8949EBF0FBE8DBF01C0080F20
:1005A00081918823E1F720E030E040E850E060E00E
:1005B00070E082E892E00E94B3046EE271E082E8AB
:1005C00092E00E945403602F82E892E00E9444036C
:1005D00020E030E041E850E060E070E082E892E046
:1005E0000E94B30482E390E00E94220281309105D0
:1005F00021F0029711F40E94F9011F910F910895C3
:100600000E94B202809166019091670101969093D9
:1006100067018093660108950E948D010E94000386
:10062000089540E05BE460E070E082E892E00E94C0
:100630003F030E947E010E9456020E945E010E94BA
:100640001B010E94CF0008950E9476050E941103AD
:100650000E940C03FDCF8AE291E090938302809385
:1006600082020895862F0E94130708950E944B0767
:1006700008950E942C0708950E941B070895CB013E
:10068000BA010E94DA060895DC01ED91FC91019017
:10069000F081E02D09950895DC01ED91FC91019028
:1006A000F081E02D099508950F931F93CF93DF9369
:1006B0008C01EB0109C02196D801ED91FC910190CC
:1006C000F081E02DC801099568816623A1F7DF91CB
:1006D000CF911F910F9108950F931F938C01DC010F
:1006E000ED91FC910190F081E02D6DE00995D8012C
:1006F000ED91FC910190F081E02D6AE0C80109952F
:100700001F910F9108950F931F938C01DC01ED91C0
:10071000FC910190F081E02D0995C8010E946C03C5
:100720001F910F9108950F931F938C010E94540302
:10073000C8010E946C031F910F9108950F931F939E
:100740008C01DC01ED91FC910190F081E02D099587
:10075000C8010E946C031F910F9108952F923F9240
:100760004F925F926F927F928F929F92AF92BF92C1
:10077000CF92DF92EF92FF920F931F93DF93CF936D
:10078000CDB7DEB7A0970FB6F894DEBF0FBECDBFD2
:100790001C016A017B01411551056105710549F490
:1007A000DC01ED91FC910190F081E02D60E3099571
:1007B00054C0882499245401422E55246624772459
:1007C00001E010E00C0F1D1F080D191DC701B60137
:1007D000A30192010E941F0DF80160830894811CFF
:1007E000911CA11CB11CC701B601A30192010E947A
:1007F0001F0DC901DA016C017D01C114D104E104AE
:10080000F104F1F681E0E82EF12CEC0EFD1EE80C6F
:10081000F91C3E010894611C711CD501C4010197AB
:10082000A109B1096C01C818D90814C0F601EE0D70
:10083000FF1D60816A3010F4605D01C0695CD10108
:10084000ED91FC910190F081E02DC1010995089492
:10085000E108F1086E147F0449F7A0960FB6F894EA
:10086000DEBF0FBECDBFCF91DF911F910F91FF90E3
:10087000EF90DF90CF90BF90AF909F908F907F9040
:100880006F905F904F903F902F9008952AE00E94C4
:10089000AE0308950F931F938C010E944604C80174
:1008A0000E946C031F910F910895AB0160E070E00E
:1008B0000E94460408950F931F938C01AB0160E0E2
:1008C00070E00E944604C8010E946C031F910F91C2
:1008D0000895EF92FF920F931F93CF93DF93EC0154
:1008E0007A018B0177FF0FC0E881F9810190F081D7
:1008F000E02D6DE2099510950095F094E094E11CCF
:10090000F11C011D111D2AE0B801A701CE010E94B2
:10091000AE03DF91CF911F910F91FF90EF9008955B
:100920000F931F938C010E946904C8010E946C03FD
:100930001F910F910895AB01662757FD6095762FA3
:100940000E94690408950F931F938C01AB016627E1
:1009500057FD6095762F0E946904C8010E946C03C0
:100960001F910F910895DC012115310541F4ED919E
:10097000FC910190F081E02D642F099508952A30B3
:10098000310519F40E94690408950E94AE03089588
:100990000F931F938C010E94B304C8010E946C0343
:1009A0001F910F9108951F920F920FB60F9211246D
:1009B0002F938F939F93AF93BF93809184029091D5
:1009C0008502A0918602B09187028050904CAF4F73
:1009D000BF4F8093840290938502A0938602B093C8
:1009E000870227C08091840290918502A09186029F
:1009F000B091870280549F41A040B0408093840210
:100A000090938502A0938602B0938702809188021A
:100A100090918902A0918A02B0918B020196A11D4A
:100A2000B11D8093880290938902A0938A02B093AB
:100A30008B028091840290918502A0918602B091F0
:100A4000870281549F41A040B04060F6BF91AF91B2
:100A50009F918F912F910F900FBE0F901F9018951F
:100A60008FB7F894209188023091890240918A02D0
:100A700050918B028FBFB901CA010895EF92FF9286
:100A80000F931F937B018C018FB7F89440918802DC
:100A90005091890260918A0270918B028FBF2FB7AB
:100AA000F8948091880290918902A0918A02B09175
:100AB0008B022FBF841B950BA60BB70B8E159F05C2
:100AC000A007B10760F31F910F91FF90EF90089579
:100AD000019759F0019749F0FC01EE0FFF1F319784
:100AE0008FB7F8943197F1F78FBF0895789484B554
:100AF000826084BD84B5816084BD85B5826085BD1A
:100B000085B5816085BDEEE6F0E0808181608083FF
:100B1000E1E8F0E080818260808380818160808371
:100B2000E0E8F0E0808181608083E1EBF0E08081AB
:100B300084608083E0EBF0E0808181608083EAE77D
:100B4000F0E0808184608083808182608083808106
:100B5000816080838081806880831092C1000895C5
:100B600080932C0108958F7090912C019295990F8C
:100B7000990F907C982B90937C0080917A008064F0
:100B800080937A0080917A0086FDFCCF20917800D6
:100B900040917900942F80E030E0282B392BC90157
:100BA00008951F93CF93DF93182FEB0161E00E940C
:100BB0002506E12FF0E0EF5DFE4F8491833051F484
:100BC00080918000806880938000D0938900C093DA
:100BD000880037C0843051F4809180008062809317
:100BE0008000D0938B00C0938A002BC0813029F401
:100BF00084B5806884BDC7BD24C0823029F484B523
:100C0000806284BDC8BD1DC0863041F48091B000B3
:100C100080688093B000C093B30013C0873041F464
:100C20008091B00080628093B000C093B40009C08E
:100C3000C038D10514F460E001C061E0812F0E944A
:100C40004306DF91CF911F910895282F30E0C9010D
:100C5000835F9E4FFC01949127503F4FF90184918F
:100C6000882381F0E82FF0E0E651FF4FE491F0E0B7
:100C7000662329F48081909589238083089580815B
:100C8000892B80830895482F50E0CA018F5D9E4FC5
:100C9000FC012491CA01835F9E4FFC01949147504F
:100CA0005F4FFA0134913323C1F1222331F1233014
:100CB00021F4809180008F7705C0243031F4809139
:100CC00080008F7D8093800018C0213019F484B596
:100CD0008F7704C0223021F484B58F7D84BD0DC090
:100CE000263021F48091B0008F7705C0273029F499
:100CF0008091B0008F7D8093B000E32FF0E0E15150
:100D0000FF4FE491F0E0662329F4808190958923D8
:100D1000808308958081892B80830895482F50E037
:100D2000CA018F5D9E4FFC012491CA01835F9E4FD3
:100D3000FC01949147505F4FFA013491332319F429
:100D400020E030E035C0222331F1233021F48091BE
:100D500080008F7705C0243031F4809180008F7D32
:100D60008093800018C0213019F484B58F7704C0B7
:100D7000223021F484B58F7D84BD0DC0263021F44E
:100D80008091B0008F7705C0273029F48091B000A2
:100D90008F7D8093B000E32FF0E0EC50FF4FE491A3
:100DA000F0E0808120E030E0892311F021E030E0A4
:100DB000C9010895EF92FF920F931F937B018C015D
:100DC00022E030E040E050E00E94410D205E3E45D0
:100DD000484F5F4FCA01B901A80197010E94410D18
:100DE000C901DA010197A109B109292F3A2F4B2F27
:100DF000552747FD5A950196A11DB11D2093C500A9
:100E000081508093C400E1ECF0E0808180618083B8
:100E10008081886080838081806880831F910F91AA
:100E2000FF90EF900895982F8091C00085FFFCCF30
:100E30009093C600089580918C0290918D02805805
:100E40009F4F20918E0230918F02821B930B60E89E
:100E500070E00E940C0D089540918E0250918F0217
:100E600080918C0290918D028417950719F42FEFD1
:100E70003FEF0FC0FA01E057FD4F2081CA010196F4
:100E800060E870E00E940C0D90938F0280938E02B8
:100E900030E0C901089580918E0290918F02909365
:100EA0008D0280938C0208951F920F920FB60F92BD
:100EB00011242F933F934F935F936F937F938F935F
:100EC0009F93AF93BF93EF93FF934091C600E09140
:100ED0008C02F0918D02CF01019660E870E00E94D3
:100EE0000C0D9C0180918E0290918F02281739077A
:100EF00039F0E057FD4F408330938D0220938C02F0
:100F0000FF91EF91BF91AF919F918F917F916F91E1
:100F10005F914F913F912F910F900FBE0F901F90B7
:100F20001895AEE0B0E0E7E9F7E00C94840D0D8988
:100F30001E8986E08C831A8309838FEF9FE79E8347
:100F40008D83CE014996AC016F89788DCE010196D3
:100F50000E94B4072F813885020F131FF8011082F9
:100F60002E96E4E00C94A00DABE0B0E0EAEBF7E0E5
:100F70000C94760D3C012B015A01FC01178216825C
:100F8000838181FD03C06FEF7FEFC8C19AE0892E96
:100F90001E010894211C311CF3012381F20123FD61
:100FA000859123FF81912F01882309F4B4C18532F3
:100FB00039F423FD859123FF81912F01853229F496
:100FC000B30190E00E94A909E7CF982FDD24CC243B
:100FD0009924FFE1FD15D0F09B3269F09C3228F492
:100FE000903259F0933291F40EC09D3249F0903313
:100FF00069F441E024C052E0D52A84E0D82A28C010
:1010000098E0D92A25C0E0E1DE2A22C0D7FC29C019
:10101000892F80538A3070F4D6FE05C0989C902C9E
:101020001124980E15C0C89CC02C1124C80EF0E2E3
:10103000DF2A0EC09E3229F4D6FC6DC140E4D42ACA
:1010400007C09C3619F450E8D52A02C0983649F4F6
:10105000F20123FD959123FF91912F01992309F02E
:10106000B8CF892F8554833018F08052833038F4FC
:1010700044E050E0A40EB51E5FE359830FC09336E1
:1010800031F0933779F0933509F056C020C0F5015F
:101090008081898342E050E0A40EB51E710101E019
:1010A00010E012C0F501E080F180D6FC03C06FEFC4
:1010B0007FEF02C0692D70E042E050E0A40EB51E43
:1010C000C7010E949E098C015FE7D52214C0F5017B
:1010D000E080F180D6FC03C06FEF7FEF02C0692D86
:1010E00070E042E050E0A40EB51EC7010E949309D3
:1010F0008C0150E8D52AD3FE07C01AC0B30180E2A4
:1011000090E00E94A909CA948C2D90E00817190755
:10111000A8F30EC0F701D7FC8591D7FE81917F011E
:10112000B30190E00E94A909C110CA940150104077
:101130000115110579F7ECC0943611F0993671F567
:10114000D7FE08C0F501E080F1800281138144E000
:1011500050E00AC0F501808191817C010027F7FCF5
:101160000095102F42E050E0A40EB51E5FE6D52298
:1011700017FF0AC010950095F094E094E11CF11C53
:10118000011D111D80E8D82A2AE030E0A101C80124
:10119000B7010E94D509F82EF21840C0953729F4FE
:1011A0001D2D1F7E2AE030E01DC01D2D197F9F36AA
:1011B00061F0903720F4983509F0ADC00FC090373A
:1011C00039F0983709F0A7C004C028E030E00AC021
:1011D000106114FD146020E130E004C014FD1660BD
:1011E00020E132E017FF08C0F50160817181828142
:1011F000938144E050E008C0F50180819181BC01F9
:1012000080E090E042E050E0A40EB51EA1010E94F3
:10121000D509F82EF2188FE7D82ED122D6FE0BC0B2
:101220005EEFD522F91438F4D4FE07C0D2FC05C015
:101230008FEED82202C01F2D01C0192DD4FE0DC083
:10124000FE01EF0DF11D8081803319F499EED92252
:1012500008C01F5FD2FE05C003C08D2D867809F03F
:101260001F5F0D2DD3FC14C0D0FE0FC01C1510F055
:101270009F2C0BC09F2C9C0C911A1C2D06C0B301F7
:1012800080E290E00E94A9091F5F1C15C0F304C012
:101290001C1510F4C11A01C0CC2404FF10C0B30106
:1012A00080E390E00E94A90902FF1EC001FD03C077
:1012B00088E790E002C088E590E0B3010CC0802F81
:1012C000867891F001FF02C08BE201C080E2D7FC7A
:1012D0008DE2B30190E00E94A90906C0B30180E34A
:1012E00090E00E94A9099A94F914C0F3FA94F101CC
:1012F000EF0DF11DB301808190E00E94A909FF204C
:10130000A9F706C0B30180E290E00E94A909CA943F
:10131000CC20C1F741CEF30166817781CB012B96BA
:10132000E2E10C94920DFC010590615070400110B7
:10133000D8F7809590958E0F9F1F0895FC016150FE
:10134000704001900110D8F7809590958E0F9F1FE7
:1013500008950F931F93CF93DF938C01EB018B8143
:1013600081FF1BC082FF0DC02E813F818C819D813A
:101370002817390764F4E881F9810193F983E88338
:1013800006C0E885F985802F0995892B31F48E8177
:101390009F8101969F838E8302C00FEF1FEFC801CC
:1013A000DF91CF911F910F910895FA01AA2728305C
:1013B00051F1203181F1E8946F936E7F6E5F7F4F22
:1013C0008F4F9F4FAF4FB1E03ED0B4E03CD0670F9E
:1013D000781F891F9A1FA11D680F791F8A1F911DF1
:1013E000A11D6A0F711D811D911DA11D20D009F441
:1013F00068943F912AE0269F11243019305D319383
:10140000DEF6CF010895462F4770405D4193B3E06B
:101410000FD0C9F7F6CF462F4F70405D4A3318F012
:10142000495D31FD4052419302D0A9F7EACFB4E0C3
:10143000A6959795879577956795BA95C9F700977B
:101440006105710508959B01AC010A2E069457951C
:10145000479537952795BA95C9F7620F731F841F73
:10146000951FA01D08955058BB27AA270ED072C102
:1014700063D130F068D120F031F49F3F11F41EF4B5
:1014800033C10EF4E095E7FB29C1E92F74D180F355
:10149000BA17620773078407950718F071F49EF571
:1014A0008CC10EF4E0950B2EBA2FA02D0B01B901C3
:1014B00090010C01CA01A0011124FF27591B99F0CA
:1014C000593F50F4503E68F11A16F040A22F232FD6
:1014D000342F4427585FF3CF469537952795A79526
:1014E000F0405395C9F77EF41F16BA0B620B730BCD
:1014F000840BBAF09150A1F0FF0FBB1F661F771F3E
:10150000881FC2F70EC0BA0F621F731F841F48F4F2
:10151000879577956795B795F7959E3F08F0B3CF78
:101520009395880F08F09927EE0F97958795089562
:101530000CD010C108D140F0FFD030F021F45F3F53
:1015400019F0CCC051113AC1CFC015D198F39923ED
:10155000C9F35523B1F3951B550BBB27AA27621777
:101560007307840738F09F5F5F4F220F331F441FBC
:10157000AA1FA9F333D00E2E3AF0E0E830D09150F4
:101580005040E695001CCAF729D0FE2F27D0660FE1
:10159000771F881FBB1F261737074807AB07B0E820
:1015A00009F0BB0B802DBF01FF2793585F4F2AF036
:1015B0009E3F510568F092C001C15F3FECF3983E39
:1015C000DCF3869577956795B795F7959F5FC9F793
:1015D000880F911D9695879597F90895E1E0660F1C
:1015E000771F881FBB1F621773078407BA0720F095
:1015F000621B730B840BBA0BEE1F88F7E0950895FE
:1016000019F40EF06BC0D9C06FC0BDD0C8F39638C6
:10161000C0F707F80F92E8942BE33AEA48EB5FE74C
:1016200096D10F920F920F924DB75EB70F924ED197
:10163000E8E6F0E05CD04F915F91EF91FF91E59586
:10164000EE1FFF1F49F0FE57E0684427EE0F441FCE
:10165000FA95E1F74195550BC0D00F9007FEB4C045
:101660000895E89409C097FB3EF490958095709595
:1016700061957F4F8F4F9F4F9923A9F0F92F96E9DE
:10168000BB279395F695879577956795B795F11153
:10169000F8CFFAF4BB0F11F460FF1BC06F5F7F4FF0
:1016A0008F4F9F4F16C0882311F096E911C0772302
:1016B00021F09EE8872F762F05C0662371F096E80B
:1016C000862F70E060E02AF09A95660F771F881FDA
:1016D000DAF7880F9695879597F9089597F99F6798
:1016E00080E870E060E008959FEF80EC0895DF935C
:1016F000CF931F930F93FF92EF92DF927B018C01A8
:10170000689405C0DA2EEF0120D1FE01E894A5917E
:101710002591359145915591AEF3EF01B6DEFE016D
:101720009701A801DA9479F7DF90EF90FF900F917D
:101730001F91CF91DF91089500240A941616170681
:1017400018060906089500240A94121613061406B2
:1017500005060895092E0394000C11F4882352F015
:10176000BB0F40F4BF2B11F460FF04C06F5F7F4FCD
:101770008F4F9F4F089557FD9058440F551F59F0B4
:101780005F3F71F04795880F97FB991F61F09F3F6E
:1017900079F087950895121613061406551FF2CF97
:1017A0004695F1DF08C0161617061806991FF1CFE7
:1017B00086957105610508940895E894BB2766270E
:1017C0007727CB0197F908959B01AC0160E070E0A9
:1017D00080E89FE3ADCE82CF0FC1D5DFE8F3992338
:1017E000D9F3940F511DBBF39150504094F059F030
:1017F000882332F0660F771F881F91505040C1F741
:101800009E3F510544F7880F911D9695879597F94E
:1018100008955F3FACF0983E9CF0BB278695779586
:101820006795B79508F4B1609395C1F7BB0F58F76A
:1018300011F460FFE8CF6F5F7F4F8F4F9F4FE3CF73
:10184000BDCF0EF0D9C050CF689448CF9CDFC8F30D
:101850009923D1F3C6F3DF93CF931F930F93FF9296
:10186000C92FDD2788232AF02197660F771F881F4D
:10187000DAF720E030E040E85FEB9FE3883920F0C2
:10188000803E30F021968F77EFDDE0E9F0E003C095
:10189000EBDDEDEBF0E02BDF8B01BE01EC01FB2E6D
:1018A0006F5771097595771F880B990BDCDE28E15E
:1018B00032E741E35FE349D0AF2D9801AE01FF90DD
:1018C0000F911F91CF91DF91E0DD44CFFA01DC0150
:1018D000AA0FBB1F9B01AC01BF5728F42227332757
:1018E000442750781FC0B75188F4AB2F0024469589
:1018F00037952795011CA395D2F3002069F0220F9C
:10190000331F441FB395DAF30DD0ADCD61307105AF
:10191000A0E88A07B94630F49B01AC016627772717
:1019200088279078309621F0208331834283538337
:1019300008950BD00FCF00DF28F005DF18F09523B6
:1019400009F0CCCED1CE112439CF15DFA0F3959F6D
:10195000D1F3950F50E0551F629FF001729FBB2796
:10196000F00DB11D639FAA27F00DB11DAA1F649F42
:101970006627B00DA11D661F829F2227B00DA11DF5
:10198000621F739FB00DA11D621F839FA00D611D7B
:10199000221F749F3327A00D611D231F849F600D9C
:1019A000211D822F762F6A2F11249F5750408AF0D5
:1019B000E1F088234AF0EE0FFF1FBB1F661F771F61
:1019C000881F91505040A9F79E3F510570F086CE78
:1019D000F5CE5F3FECF3983EDCF3869577956795FF
:1019E000B795F795E7959F5FC1F7FE2B880F911D7F
:1019F0009695879597F908959F3F49F0915028F45F
:101A0000869577956795B7959F5F80389F4F880F2C
:101A10009695879597F9089597FB092E07260AD082
:101A200077FD04D049D006D000201AF47095619556
:101A30007F4F0895F6F7909581959F4F0895A1E205
:101A40001A2EAA1BBB1BFD010DC0AA1FBB1FEE1F38
:101A5000FF1FA217B307E407F50720F0A21BB30B83
:101A6000E40BF50B661F771F881F991F1A9469F7FF
:101A700060957095809590959B01AC01BD01CF015B
:101A8000089597FB092E05260ED057FD04D0D7DF09
:101A90000AD0001C38F450954095309521953F4F61
:101AA0004F4F5F4F0895F6F790958095709561952B
:101AB0007F4F8F4F9F4F0895AA1BBB1B51E107C05B
:101AC000AA1FBB1FA617B70710F0A61BB70B881FCE
:101AD000991F5A95A9F780959095BC01CD0108955D
:101AE000EE0FFF1F0590F491E02D09942F923F9285
:101AF0004F925F926F927F928F929F92AF92BF921E
:101B0000CF92DF92EF92FF920F931F93CF93DF93C9
:101B1000CDB7DEB7CA1BDB0B0FB6F894DEBF0FBE26
:101B2000CDBF09942A88398848885F846E847D8473
:101B30008C849B84AA84B984C884DF80EE80FD8075
:101B40000C811B81AA81B981CE0FD11D0FB6F894EB
:0E1B5000DEBF0FBECDBFED010895F894FFCFAC
:101B5E00776F6F686F6F2100256400616C6265722C
:101B6E0074000B01010100401C4600E076450000A8
:0E1B7E00954300007A4400000000320301008D
:04000005008002690C
:00000001FF
