:100000000C949C000C94C4000C94C4000C94C40088
:100010000C94C4000C94C4000C94C4000C94C40050
:100020000C94C4000C94C4000C94C4000C94C40040
:100030000C94C4000C94C4000C94C4000C94C40030
:100040000C94FB040C94C4000C947C070C94C40026
:100050000C94C4000C94C4000C94C4000C94C40010
:100060000C94C4000C94C40007634236B79BD8A715
:100070001A39685618AEBAAB558C1D3CB7CC5763CD
:10008000BD6DEDFD753EF6177231BF000000803F7B
:1000900008000000BE922449123EABAAAA2ABECD97
:1000A000CCCC4C3E00000080BEABAAAAAA3E000009
:1000B0000000BF000000803F000000000008417801
:1000C000D3BB4387D1133D190E3CC3BD4282AD2B38
:1000D0003E68EC8276BED98FE1A93E4C80EFFFBE30
:1000E00001C4FF7F3F0000000000000024272A0019
:1000F0000025282B000023262904040404040404FA
:1001000004020202020202030303030303010204C6
:100110000810204080010204081020010204081089
:100120002000000007000201000003040600000098
:10013000000000000000530311241FBECFEFD4E0E5
:10014000DEBFCDBF11E0A0E0B1E0E0E1FCE102C024
:1001500005900D92A035B107D9F713E0A0E5B1E005
:1001600001C01D92A033B107E1F711E0C8E3D1E06F
:1001700004C02297FE010E94CB0DC633D107C9F7F8
:100180000E944C030C94060E0C940000E0E5F1E094
:1001900080E001C0890F91919923E1F70895EF92D2
:1001A000FF920F931F93E0903C01F0903D0100916E
:1001B0003E0110913F01C801B701905820914001C4
:1001C0003091410140914201509143010E94C00A87
:1001D0000E942D0B209138013091390140913A0154
:1001E00050913B010E94F20C9B01AC016091920284
:1001F0007091930280919402909195020E94C00A9E
:100200000E947F0C9B01AC01C801B7010E94C00A8B
:1002100020E030E848E853E40E945B0A60939A02C9
:1002200070939B0280939C0290939D021F910F916B
:10023000FF90EF900895EF92FF920F931F936091BC
:100240008A0270918B02882777FD8095982F0E94F3
:100250008C0B7B018C0160918C0270918D02882740
:1002600077FD8095982F0E948C0B9B01AC01C801F3
:10027000B7010E94C00A20E030E040E85FE30E943E
:100280005B0A209144013091450140914601509113
:1002900047010E94F20C6093920270939302809344
:1002A00094029093950260E071E082EA92E00E94ED
:1002B000BB031F910F91FF90EF90089580E00E9483
:1002C000DB0590938B0280938A0281E00E94DB051C
:1002D00090938D0280938C0208950E945E010E948B
:1002E0001B010E94CF00089560E082E00E946B062F
:1002F000089561E082E00E946B06089561E082E06B
:100300000E944D0660E083E00E944D0661E084E0BB
:100310000E944D060E94740108950E947901209167
:1003200036013091370188EE93E0289FB001299F74
:10033000700D389F700D11244091840150918501FA
:1003400020E63AEEC901489F9001499F300D589F21
:10035000300D1124620F731F882777FD8095982F29
:100360000E9466050E9474010895AF92BF92CF92D9
:10037000DF92EF92FF920F931F93E0909A02F0901A
:100380009B0200919C0210919D02C801B7010E943E
:10039000590B5B016C01B501882777FD8095982F7B
:1003A0000E948C0B9B01AC01C801B7010E945B0A43
:1003B00020E030E048EC52E40E94F20C0E94590B1D
:1003C0007F936F93BF92AF92809186019091870146
:1003D0009F938F9388E091E09F938F9300E511E0C6
:1003E0001F930F930E94B907F80100E08DB79EB7E5
:1003F0000A960FB6F8949EBF0FBE8DBF01C0080FBE
:1004000081918823E1F720E030E040E850E060E0AF
:1004100070E082EA92E00E94DB0460E571E082EA2B
:1004200092E00E947C03602F82EA92E00E946C03BB
:1004300020E030E041E850E060E070E082EA92E0E5
:100440000E94DB041F910F91FF90EF90DF90CF90FF
:10045000BF90AF9008950E945E010E941B010E9410
:10046000CF000E94B501809186019091870101968D
:10047000909387018093860108950E948D010E94C8
:100480002B020895CF92DF92EF92FF920F931F936A
:10049000CF93DF938C0180918802809389020E9420
:1004A0005805060F171F6801EE24D7FCE094FE2CB8
:1004B00010C080918802C82FD0E082EA92E00E94AA
:1004C0006103C857DE4F8883809188028F5F8093D5
:1004D00088020E9458056C157D058E059F0538F42D
:1004E00082EA92E00E946403882399F3E2CF80912C
:1004F0008802809389028FEF9FEFDF91CF911F9148
:100500000F91FF90EF90DF90CF9008951F9310E030
:1005100020E030E043E050E060E070E082EA92E00A
:100520000E94DB0484E690E00E9442028F5F9F4FAE
:1005300059F420E030E047E050E060E070E082EA0B
:1005400092E00E94DB0407C068E070E082EA92E07B
:100550000E94C3041F5F1130D9F61F910895CF92F6
:10056000DF92EF92FF920F931F938C010E94580528
:10057000060F171F6801EE24D7FCE094FE2C82EAD8
:1005800092E00E9464038823A9F40E9458056C1528
:100590007D058E059F0570F4F2CF82EA92E00E94FD
:1005A00061039C01C9011F910F91FF90EF90DF90B3
:1005B000CF90089582EA92E00E946403882369F74D
:1005C0002FEF3FEFEFCF20E030E040E850E060E079
:1005D00070E082EA92E00E94DB0420E030E046E036
:1005E00050E060E070E082EA92E00E94DB046091FB
:1005F00032017091330182EA92E00E947C03E09123
:100600003201F091330140E001C0480F819188230D
:10061000E1F74A5F50E060E070E020E030E082EA1D
:1006200092E00E94DB0420E030E041E850E060E02E
:1006300070E082EA92E00E94DB0484E690E00E948F
:10064000AF028130910521F481E080933401089557
:100650008230910531F481E0809334010E9486025A
:1006600008958F5F9F4F51F420E030E047E050E065
:1006700060E070E082EA92E00E94DB04089540E0CE
:100680005BE460E070E082EA92E00E9467030E940F
:100690007E010E94E30208950E949E050E943F038E
:1006A0000E943D02FDCF8CE491E09093A3028093E1
:1006B000A2020895862F0E943B0708950E947307A7
:1006C00008950E94540708950E9443070895CB019E
:1006D000BA010E9402070895DC01ED91FC9101909E
:1006E000F081E02D09950895DC01ED91FC910190D8
:1006F000F081E02D099508950F931F93CF93DF9319
:100700008C01EB0109C02196D801ED91FC9101907B
:10071000F081E02DC801099568816623A1F7DF917A
:10072000CF911F910F9108950F931F938C01DC01BE
:10073000ED91FC910190F081E02D6DE00995D801DB
:10074000ED91FC910190F081E02D6AE0C8010995DE
:100750001F910F9108950F931F938C01DC01ED9170
:10076000FC910190F081E02D0995C8010E9494034D
:100770001F910F9108950F931F938C010E947C038A
:10078000C8010E9494031F910F9108950F931F9326
:100790008C01DC01ED91FC910190F081E02D099537
:1007A000C8010E9494031F910F9108952F923F92C8
:1007B0004F925F926F927F928F929F92AF92BF9271
:1007C000CF92DF92EF92FF920F931F93DF93CF931D
:1007D000CDB7DEB7A0970FB6F894DEBF0FBECDBF82
:1007E0001C016A017B01411551056105710549F440
:1007F000DC01ED91FC910190F081E02D60E3099521
:1008000054C0882499245401422E55246624772408
:1008100001E010E00C0F1D1F080D191DC701B601E6
:10082000A30192010E94780DF80160830894811C55
:10083000911CA11CB11CC701B601A30192010E9429
:10084000780DC901DA016C017D01C114D104E10404
:10085000F104F1F681E0E82EF12CEC0EFD1EE80C1F
:10086000F91C3E010894611C711CD501C40101975B
:10087000A109B1096C01C818D90814C0F601EE0D20
:10088000FF1D60816A3010F4605D01C0695CD101B8
:10089000ED91FC910190F081E02DC1010995089442
:1008A000E108F1086E147F0449F7A0960FB6F8949A
:1008B000DEBF0FBECDBFCF91DF911F910F91FF9093
:1008C000EF90DF90CF90BF90AF909F908F907F90F0
:1008D0006F905F904F903F902F9008952AE00E9474
:1008E000D60308950F931F938C010E946E04C801D4
:1008F0000E9494031F910F910895AB0160E070E096
:100900000E946E0408950F931F938C01AB0160E069
:1009100070E00E946E04C8010E9494031F910F9121
:100920000895EF92FF920F931F93CF93DF93EC0103
:100930007A018B0177FF0FC0E881F9810190F08186
:10094000E02D6DE2099510950095F094E094E11C7E
:10095000F11C011D111D2AE0B801A701CE010E9462
:10096000D603DF91CF911F910F91FF90EF900895E3
:100970000F931F938C010E949104C8010E9494035D
:100980001F910F910895AB01662757FD6095762F53
:100990000E94910408950F931F938C01AB01662769
:1009A00057FD6095762F0E949104C8010E94940320
:1009B0001F910F910895DC012115310541F4ED914E
:1009C000FC910190F081E02D642F099508952A3063
:1009D000310519F40E94910408950E94D6030895E8
:1009E0000F931F938C010E94DB04C8010E949403A3
:1009F0001F910F9108951F920F920FB60F9211241D
:100A00002F938F939F93AF93BF938091A402909164
:100A1000A502A091A602B091A7028050904CAF4FC2
:100A2000BF4F8093A4029093A502A093A602B09317
:100A3000A70227C08091A4029091A502A091A602CE
:100A4000B091A70280549F41A040B0408093A4027F
:100A50009093A502A093A602B093A7028091A8024A
:100A60009091A902A091AA02B091AB020196A11D9A
:100A7000B11D8093A8029093A902A093AA02B093FB
:100A8000AB028091A4029091A502A091A602B09120
:100A9000A70281549F41A040B04060F6BF91AF9142
:100AA0009F918F912F910F900FBE0F901F901895CF
:100AB0008FB7F8942091A8023091A9024091AA0220
:100AC0005091AB028FBFB901CA010895EF92FF9216
:100AD0000F931F937B018C018FB7F8944091A8026C
:100AE0005091A9026091AA027091AB028FBF2FB7FB
:100AF000F8948091A8029091A902A091AA02B091C5
:100B0000AB022FBF841B950BA60BB70B8E159F0551
:100B1000A007B10760F31F910F91FF90EF90089528
:100B2000019759F0019749F0FC01EE0FFF1F319733
:100B30008FB7F8943197F1F78FBF0895789484B503
:100B4000826084BD84B5816084BD85B5826085BDC9
:100B500085B5816085BDEEE6F0E0808181608083AF
:100B6000E1E8F0E080818260808380818160808321
:100B7000E0E8F0E0808181608083E1EBF0E080815B
:100B800084608083E0EBF0E0808181608083EAE72D
:100B9000F0E08081846080838081826080838081B6
:100BA000816080838081806880831092C100089575
:100BB00080934E0108958F7090914E019295990FF8
:100BC000990F907C982B90937C0080917A008064A0
:100BD00080937A0080917A0086FDFCCF2091780086
:100BE00040917900942F80E030E0282B392BC90107
:100BF00008951F93CF93DF93182FEB0161E00E94BC
:100C00004D06E12FF0E0EF5DFE4F8491833051F40B
:100C100080918000806880938000D0938900C09389
:100C2000880037C0843051F48091800080628093C6
:100C30008000D0938B00C0938A002BC0813029F4B0
:100C400084B5806884BDC7BD24C0823029F484B5D2
:100C5000806284BDC8BD1DC0863041F48091B00063
:100C600080688093B000C093B30013C0873041F414
:100C70008091B00080628093B000C093B40009C03E
:100C8000C038D10514F460E001C061E0812F0E94FA
:100C90006B06DF91CF911F910895282F30E0C90195
:100CA000835F9E4FFC01949127503F4FF90184913F
:100CB000882381F0E82FF0E0E651FF4FE491F0E067
:100CC000662329F48081909589238083089580810B
:100CD000892B80830895482F50E0CA018F5D9E4F75
:100CE000FC012491CA01835F9E4FFC0194914750FF
:100CF0005F4FFA0134913323C1F1222331F12330C4
:100D000021F4809180008F7705C0243031F48091E8
:100D100080008F7D8093800018C0213019F484B545
:100D20008F7704C0223021F484B58F7D84BD0DC03F
:100D3000263021F48091B0008F7705C0273029F448
:100D40008091B0008F7D8093B000E32FF0E0E151FF
:100D5000FF4FE491F0E0662329F480819095892388
:100D6000808308958081892B80830895482F50E0E7
:100D7000CA018F5D9E4FFC012491CA01835F9E4F83
:100D8000FC01949147505F4FFA013491332319F4D9
:100D900020E030E035C0222331F1233021F480916E
:100DA00080008F7705C0243031F4809180008F7DE2
:100DB0008093800018C0213019F484B58F7704C067
:100DC000223021F484B58F7D84BD0DC0263021F4FE
:100DD0008091B0008F7705C0273029F48091B00052
:100DE0008F7D8093B000E32FF0E0EC50FF4FE49153
:100DF000F0E0808120E030E0892311F021E030E054
:100E0000C9010895EF92FF920F931F937B018C010C
:100E100022E030E040E050E00E949A0D205E3E4526
:100E2000484F5F4FCA01B901A80197010E949A0D6E
:100E3000C901DA010197A109B109292F3A2F4B2FD6
:100E4000552747FD5A950196A11DB11D2093C50058
:100E500081508093C400E1ECF0E080818061808368
:100E60008081886080838081806880831F910F915A
:100E7000FF90EF900895982F8091C00085FFFCCFE0
:100E80009093C60008958091AC029091AD02805875
:100E90009F4F2091AE023091AF02821B930B60E80E
:100EA00070E00E94650D08954091AE025091AF022E
:100EB0008091AC029091AD028417950719F42FEF41
:100EC0003FEF0FC0FA01E055FD4F2081CA010196A6
:100ED00060E870E00E94650D9093AF028093AE02CF
:100EE00030E0C90108958091AE029091AF029093D5
:100EF000AD028093AC0208951F920F920FB60F922D
:100F000011242F933F934F935F936F937F938F930E
:100F10009F93AF93BF93EF93FF934091C600E091EF
:100F2000AC02F091AD02CF01019660E870E00E9442
:100F3000650D9C018091AE029091AF022817390790
:100F400039F0E055FD4F40833093AD022093AC0261
:100F5000FF91EF91BF91AF919F918F917F916F9191
:100F60005F914F913F912F910F900FBE0F901F9067
:100F70001895AEE0B0E0EFEBF7E00C94DD0D0D89D5
:100F80001E8986E08C831A8309838FEF9FE79E83F7
:100F90008D83CE014996AC016F89788DCE01019683
:100FA0000E94DC072F813885020F131FF801108281
:100FB0002E96E4E00C94F90DABE0B0E0E2EEF7E041
:100FC0000C94CF0D3C012B015A01FC0117821682B3
:100FD000838181FD03C06FEF7FEFC8C19AE0892E46
:100FE0001E010894211C311CF3012381F20123FD11
:100FF000859123FF81912F01882309F4B4C18532A3
:1010000039F423FD859123FF81912F01853229F445
:10101000B30190E00E94D109E7CF982FDD24CC24C2
:101020009924FFE1FD15D0F09B3269F09C3228F441
:10103000903259F0933291F40EC09D3249F09033C2
:1010400069F441E024C052E0D52A84E0D82A28C0BF
:1010500098E0D92A25C0E0E1DE2A22C0D7FC29C0C9
:10106000892F80538A3070F4D6FE05C0989C902C4E
:101070001124980E15C0C89CC02C1124C80EF0E293
:10108000DF2A0EC09E3229F4D6FC6DC140E4D42A7A
:1010900007C09C3619F450E8D52A02C0983649F4A6
:1010A000F20123FD959123FF91912F01992309F0DE
:1010B000B8CF892F8554833018F08052833038F4AC
:1010C00044E050E0A40EB51E5FE359830FC0933691
:1010D00031F0933779F0933509F056C020C0F5010F
:1010E0008081898342E050E0A40EB51E710101E0C9
:1010F00010E012C0F501E080F180D6FC03C06FEF74
:101100007FEF02C0692D70E042E050E0A40EB51EF2
:10111000C7010E94C6098C015FE7D52214C0F50102
:10112000E080F180D6FC03C06FEF7FEF02C0692D35
:1011300070E042E050E0A40EB51EC7010E94BB095A
:101140008C0150E8D52AD3FE07C01AC0B30180E253
:1011500090E00E94D109CA948C2D90E008171907DD
:10116000A8F30EC0F701D7FC8591D7FE81917F01CE
:10117000B30190E00E94D109C110CA9401501040FF
:101180000115110579F7ECC0943611F0993671F517
:10119000D7FE08C0F501E080F1800281138144E0B0
:1011A00050E00AC0F501808191817C010027F7FCA5
:1011B0000095102F42E050E0A40EB51E5FE6D52248
:1011C00017FF0AC010950095F094E094E11CF11C03
:1011D000011D111D80E8D82A2AE030E0A101C801D4
:1011E000B7010E94FD09F82EF21840C0953729F486
:1011F0001D2D1F7E2AE030E01DC01D2D197F9F365A
:1012000061F0903720F4983509F0ADC00FC09037E9
:1012100039F0983709F0A7C004C028E030E00AC0D0
:10122000106114FD146020E130E004C014FD16606C
:1012300020E132E017FF08C0F501608171818281F1
:10124000938144E050E008C0F50180819181BC01A8
:1012500080E090E042E050E0A40EB51EA1010E94A3
:10126000FD09F82EF2188FE7D82ED122D6FE0BC03A
:101270005EEFD522F91438F4D4FE07C0D2FC05C0C5
:101280008FEED82202C01F2D01C0192DD4FE0DC033
:10129000FE01EF0DF11D8081803319F499EED92202
:1012A00008C01F5FD2FE05C003C08D2D867809F0EF
:1012B0001F5F0D2DD3FC14C0D0FE0FC01C1510F005
:1012C0009F2C0BC09F2C9C0C911A1C2D06C0B301A7
:1012D00080E290E00E94D1091F5F1C15C0F304C09A
:1012E0001C1510F4C11A01C0CC2404FF10C0B301B6
:1012F00080E390E00E94D10902FF1EC001FD03C0FF
:1013000088E790E002C088E590E0B3010CC0802F30
:10131000867891F001FF02C08BE201C080E2D7FC29
:101320008DE2B30190E00E94D10906C0B30180E3D1
:1013300090E00E94D1099A94F914C0F3FA94F10153
:10134000EF0DF11DB301808190E00E94D109FF20D3
:10135000A9F706C0B30180E290E00E94D109CA94C7
:10136000CC20C1F741CEF30166817781CB012B966A
:10137000E2E10C94EB0DFC0105906150704001100E
:10138000D8F7809590958E0F9F1F0895FC016150AE
:10139000704001900110D8F7809590958E0F9F1F97
:1013A00008950F931F93CF93DF938C01EB018B81F3
:1013B00081FF1BC082FF0DC02E813F818C819D81EA
:1013C0002817390764F4E881F9810193F983E883E8
:1013D00006C0E885F985802F0995892B31F48E8127
:1013E0009F8101969F838E8302C00FEF1FEFC8017C
:1013F000DF91CF911F910F910895FA01AA2728300C
:1014000051F1203181F1E8946F936E7F6E5F7F4FD1
:101410008F4F9F4FAF4FB1E03ED0B4E03CD0670F4D
:10142000781F891F9A1FA11D680F791F8A1F911DA0
:10143000A11D6A0F711D811D911DA11D20D009F4F0
:1014400068943F912AE0269F11243019305D319332
:10145000DEF6CF010895462F4770405D4193B3E01B
:101460000FD0C9F7F6CF462F4F70405D4A3318F0C2
:10147000495D31FD4052419302D0A9F7EACFB4E073
:10148000A6959795879577956795BA95C9F700972B
:101490006105710508959B01AC010A2E06945795CC
:1014A000479537952795BA95C9F7620F731F841F23
:1014B000951FA01D08955058BB27AA270ED0A3C181
:1014C00094D130F099D120F031F49F3F11F41EF403
:1014D00064C10EF4E095E7FB5AC1E92FA5D180F372
:1014E000BA17620773078407950718F071F49EF521
:1014F000BDC10EF4E0950B2EBA2FA02D0B01B90142
:1015000090010C01CA01A0011124FF27591B99F079
:10151000593F50F4503E68F11A16F040A22F232F85
:10152000342F4427585FF3CF469537952795A795D5
:10153000F0405395C9F77EF41F16BA0B620B730B7C
:10154000840BBAF09150A1F0FF0FBB1F661F771FED
:10155000881FC2F70EC0BA0F621F731F841F48F4A2
:10156000879577956795B795F7959E3F08F0B3CF28
:101570009395880F08F09927EE0F97958795089512
:101580000CD041C139D140F030D130F021F45F3F6F
:1015900019F0FDC051116BC100C146D198F39923D8
:1015A000C9F35523B1F3951B550BBB27AA27621727
:1015B0007307840738F09F5F5F4F220F331F441F6C
:1015C000AA1FA9F333D00E2E3AF0E0E830D09150A4
:1015D0005040E695001CCAF729D0FE2F27D0660F91
:1015E000771F881FBB1F261737074807AB07B0E8D0
:1015F00009F0BB0B802DBF01FF2793585F4F2AF0E6
:101600009E3F510568F0C3C032C15F3FECF3983E86
:10161000DCF3869577956795B795F7959F5FC9F742
:10162000880F911D9695879597F90895E1E0660FCB
:10163000771F881FBB1F621773078407BA0720F044
:10164000621B730B840BBA0BEE1F88F7E0950895AD
:1016500019F40EF09CC00AC1A0C0EED0C8F39638B1
:10166000C0F707F80F92E8942BE33AEA48EB5FE7FC
:10167000C7D10F920F920F924DB75EB70F927FD1E5
:10168000E8E6F0E08DD04F915F91EF91FF91E59505
:10169000EE1FFF1F49F0FE57E0684427EE0F441F7E
:1016A000FA95E1F74195550BF1D00F9007FEE5C093
:1016B000089504D06894B111DAC00895BDD088F0BF
:1016C0009F5790F0B92F9927B751A0F0D1F0660F2E
:1016D000771F881F991F1AF0BA95C9F712C0B13049
:1016E00081F0C4D0B1E00895C1C0672F782F88275A
:1016F000B85F39F0B93FCCF3869577956795B39588
:10170000D9F73EF490958095709561957F4F8F4FF6
:101710009F4F0895E89409C097FB3EF490958095FB
:10172000709561957F4F8F4F9F4F9923A9F0F92FA7
:1017300096E9BB279395F695879577956795B79525
:10174000F111F8CFFAF4BB0F11F460FF1BC06F5F0B
:101750007F4F8F4F9F4F16C0882311F096E911C01D
:10176000772321F09EE8872F762F05C0662371F03E
:1017700096E8862F70E060E02AF09A95660F771F52
:10178000881FDAF7880F9695879597F9089597F946
:101790009F6780E870E060E008959FEF80EC089517
:1017A000DF93CF931F930F93FF92EF92DF927B0112
:1017B0008C01689405C0DA2EEF0120D1FE01E89477
:1017C000A5912591359145915591AEF3EF0185DEB7
:1017D000FE019701A801DA9479F7DF90EF90FF906E
:1017E0000F911F91CF91DF91089500240A9416164E
:1017F000170618060906089500240A9412161306FF
:10180000140605060895092E0394000C11F488238C
:1018100052F0BB0F40F4BF2B11F460FF04C06F5FA8
:101820007F4F8F4F9F4F089557FD9058440F551F7E
:1018300059F05F3F71F04795880F97FB991F61F052
:101840009F3F79F087950895121613061406551FC9
:10185000F2CF4695F1DF08C0161617061806991F35
:10186000F1CF86957105610508940895E894BB272A
:1018700066277727CB0197F908959B01AC0160E0BB
:1018800070E080E89FE37CCE82CF0FC1D5DFE8F324
:101890009923D9F3940F511DBBF39150504094F00C
:1018A00059F0882332F0660F771F881F91505040FF
:1018B000C1F79E3F510544F7880F911D9695879576
:1018C00097F908955F3FACF0983E9CF0BB27869552
:1018D00077956795B79508F4B1609395C1F7BB0FFD
:1018E00058F711F460FFE8CF6F5F7F4F8F4F9F4F26
:1018F000E3CFBDCF0EF0D9C050CF689448CF9CDF66
:10190000C8F39923D1F3C6F3DF93CF931F930F93BB
:10191000FF92C92FDD2788232AF02197660F771FB2
:10192000881FDAF720E030E040E85FEB9FE388397A
:1019300020F0803E30F021968F77BEDDE0E9F0E0C8
:1019400003C0BADDEDEBF0E02BDF8B01BE01EC0153
:10195000FB2E6F5771097595771F880B990BDCDE8D
:1019600028E132E741E35FE349D0AF2D9801AE01B2
:10197000FF900F911F91CF91DF91AFDD44CFFA011E
:10198000DC01AA0FBB1F9B01AC01BF5728F4222723
:101990003327442750781FC0B75188F4AB2F002459
:1019A000469537952795011CA395D2F3002069F041
:1019B000220F331F441FB395DAF30DD07CCD613075
:1019C0007105A0E88A07B94630F49B01AC0166278F
:1019D000772788279078309621F0208331834283BF
:1019E000538308950BD00FCF00DF28F005DF18F0E8
:1019F000952309F0CCCED1CE112439CF15DFA0F339
:101A0000959FD1F3950F50E0551F629FF001729F93
:101A1000BB27F00DB11D639FAA27F00DB11DAA1FB2
:101A2000649F6627B00DA11D661F829F2227B00DFF
:101A3000A11D621F739FB00DA11D621F839FA00D8A
:101A4000611D221F749F3327A00D611D231F849FDA
:101A5000600D211D822F762F6A2F11249F57504031
:101A60008AF0E1F088234AF0EE0FFF1FBB1F661FCC
:101A7000771F881F91505040A9F79E3F510570F085
:101A800086CEF5CE5F3FECF3983EDCF386957795F6
:101A90006795B795F795E7959F5FC1F7FE2B880F80
:101AA000911D9695879597F908959F3F49F091501C
:101AB00028F4869577956795B7959F5F80389F4FF7
:101AC000880F9695879597F9089597FB092E072615
:101AD0000AD077FD04D049D006D000201AF47095C2
:101AE00061957F4F0895F6F7909581959F4F0895E2
:101AF000A1E21A2EAA1BBB1BFD010DC0AA1FBB1F12
:101B0000EE1FFF1FA217B307E407F50720F0A21B83
:101B1000B30BE40BF50B661F771F881F991F1A94F0
:101B200069F760957095809590959B01AC01BD011A
:101B3000CF01089597FB092E05260ED057FD04D03E
:101B4000D7DF0AD0001C38F4509540953095219588
:101B50003F4F4F4F5F4F0895F6F7909580957095E2
:101B600061957F4F8F4F9F4F0895AA1BBB1B51E17B
:101B700007C0AA1FBB1FA617B70710F0A61BB70BFD
:101B8000881F991F5A95A9F780959095BC01CD01A2
:101B90000895EE0FFF1F0590F491E02D09942F9208
:101BA0003F924F925F926F927F928F929F92AF92ED
:101BB000BF92CF92DF92EF92FF920F931F93CF933A
:101BC000DF93CDB7DEB7CA1BDB0B0FB6F894DEBFD1
:101BD0000FBECDBF09942A88398848885F846E84F7
:101BE0007D848C849B84AA84B984C884DF80EE8041
:101BF000FD800C811B81AA81B981CE0FD11D0FB64A
:101C0000F894DEBF0FBECDBFED010895F894FFCF6D
:101C1000776F6F686F6F210020256420746865728C
:101C20006D6973746F722031203D2025642E256408
:101C30002064656772656573204300616C6265723C
:101C400074002B010101010000401C4600E07645B4
:101C50000000954300007A44000000005A03010090
:0400000500800289EC
:00000001FF
