:100000000C949C000C94FA050C9417060C94C400F4
:100010000C94C4000C94C4000C94C4000C942B02E7
:100020000C94C4000C94C4000C94C4000C94C40040
:100030000C94C4000C94C4000C94C4000C94C40030
:100040000C9465070C94C4000C94B2080C94C40082
:100050000C94C4000C94C4000C94C4000C94C40010
:100060000C94C4000C94C40007634236B79BD8A715
:100070001A39685618AEBAAB558C1D3CB7CC5763CD
:10008000BD6DEDFD753EF6177231BF000000803F7B
:1000900008000000BE922449123EABAAAA2ABECD97
:1000A000CCCC4C3E00000080BEABAAAAAA3E000009
:1000B0000000BF000000803F000000000008417801
:1000C000D3BB4387D1133D190E3CC3BD4282AD2B38
:1000D0003E68EC8276BED98FE1A93E4C80EFFFBE30
:1000E00001C4FF7F3F0000000000000024272A0019
:1000F0000025282B000023262904040404040404FA
:1001000004020202020202030303030303010204C6
:100110000810204080010204081020010204081089
:100120002000000007000201000003040600000098
:10013000000000000000340611241FBECFEFD4E001
:10014000DEBFCDBF11E0A0E0B1E0EAECF8E102C013
:1001500005900D92AE37B107D9F712E0AEE7B1E0E6
:1001600001C01D92A232B107E1F711E0C8E3D1E06E
:1001700004C02297FE010E945F0CC633D107C9F765
:100180000E94F3050C94630C0C9400000F931F93D2
:10019000CF93DF93689F8001699F100D789F100DAA
:1001A0001124C8010E94E200EC01009729F0A80187
:1001B00060E070E00E94E101CE01DF91CF911F91DC
:1001C0000F910895CF93DF93BC018230910510F415
:1001D00062E070E0A0912002B0912102ED01E0E028
:1001E000F0E040E050E021C08881998186179707B0
:1001F00069F48A819B81309719F09383828304C0CC
:100200009093210280932002FE0133C06817790782
:1002100038F44115510519F08417950708F4AC011D
:10022000FE018A819B819C01E9012097E9F6411535
:100230005105A1F1CA01861B970B049708F4BA0176
:10024000E0E0F0E029C08D919C911197841795070B
:10025000F1F46417750779F4ED018A819B81309779
:1002600019F09383828304C090932102809320022B
:10027000FD0132964CC0CA01861B970BFD01E80FA9
:10028000F91F6193719302978D939C9340C0FD0178
:10029000828193819C01D9011097A9F680911E0259
:1002A00090911F02892B41F4809163019091640128
:1002B00090931F0280931E02409165015091660148
:1002C0004115510541F44DB75EB7809161019091A0
:1002D0006201481B590B20911E0230911F02CA0176
:1002E000821B930B8617970780F0AB014E5F5F4F21
:1002F0008417950750F0420F531F50931F024093ED
:100300001E02F9016193719302C0E0E0F0E0CF01B9
:10031000DF91CF910895CF93DF93009709F44EC0FA
:10032000EC0122971B821A82A0912002B091210237
:10033000109701F140E050E0AC17BD0700F1BB831E
:10034000AA83FE0121913191E20FF31FAE17BF077F
:1003500071F48D919C911197280F391F2E5F3F4F9B
:1003600039832883FD01828193819B838A83411590
:10037000510569F4D0932102C09320021FC0FD01F2
:1003800082819381AD01009711F0DC01D5CFFA0194
:10039000D383C28321913191E20FF31FCE17DF0780
:1003A00069F488819981280F391F2E5F3F4FFA0128
:1003B000318320838A819B8193838283DF91CF91D4
:1003C0000895DC0101C06D9341505040E0F708955D
:1003D000FB01DC010D900020E9F7119701900D92CF
:1003E0000020E1F70895FB01DC0101900D9200204F
:1003F000E1F70895FB019F01E8944230C4F04532D3
:10040000B4F44A3029F497FB1EF4909581959F4FE0
:10041000642F77270E94490C805D8A330CF0895D38
:100420008193CB010097A1F716F45DE251931082FE
:10043000C9010C941B02DC01FC01672F7191772329
:10044000E1F7329704C07C916D9370836291AE178F
:10045000BF07C8F308951F920F920FB60F92112491
:100460002F935F936F937F938F939F93AF93BF93DC
:1004700080917E0190917F01819690937F0180937E
:100480007E0123E0883E92078CF068EE73E00E94C4
:10049000F90B90937F0180937E0180918001909170
:1004A0008101019690938101809380018091800168
:1004B000909181018C3391058CF06CE370E00E9487
:1004C000F90B90938101809380018091820190913A
:1004D0008301019690938301809382018091820130
:1004E000909183018C3391058CF06CE370E00E9455
:1004F000F90B909383018093820180918401909104
:1005000085010196909385018093840180918401F7
:1005100090918501883191058CF068E170E00E942E
:10052000F90B9093850180938401809186019091CD
:1005300087010196909387018093860180918601BF
:1005400090918701873091058CF067E070E00E9400
:10055000F90B909387018093860180918801909197
:100560008901019690938901809388018091880187
:1005700090918901843091057CF083709070909304
:1005800089018093880180918A0190918B01019665
:1005900090938B0180938A01BF91AF919F918F912E
:1005A0007F916F915F912F910F900FBE0F901F90D1
:1005B0001895AF92BF92CF92DF92EF92FF920F9376
:1005C0001F935B016C01E0906B01F0906C01009156
:1005D0006D0110916E01C801B7019058209173010F
:1005E0003091740140917501509176010E94540937
:1005F0000E94C10920916F013091700140917101F9
:10060000509172010E94860B9B01AC01C601B5019D
:100610000E9454090E94130B9B01AC01C801B70151
:100620000E94540920E030E848E853E40E94EF08B3
:100630001F910F91FF90EF90DF90CF90BF90AF9000
:100640000895AF92BF92CF92DF92EF92FF920F93F5
:100650001F93DF93CF93CDB7DEB728970FB6F894EB
:10066000DEBF0FBECDBF80E00E9447077C0181E066
:100670000E944707AA2797FDA095BA2FBC01CD017C
:100680000E94200A5B016C01FE01319688E0DF01C7
:100690001D928A95E9F70027F7FC0095102FC801F5
:1006A000B7010E94200A69837A838B839C83AD8281
:1006B000BE82CF82D886A60195010E94540920E00F
:1006C00030E040E85FE30E94EF082091670130913D
:1006D00068014091690150916A010E94860B0E9455
:1006E000D902E0E0F0E06083718382839383CF01DD
:1006F00028960FB6F894DEBF0FBECDBFCF91DF9125
:100700001F910F91FF90EF90DF90CF90BF90AF902F
:10071000089564EF71E080E090E00E94C20740E03D
:100720005BE460E070E080E991E00E943F0608959C
:10073000BC01DC010D900020E9F71197A81BB90B53
:1007400040E050E020E030E00BC0FB01E20FF31F7F
:100750008081992787FD9095480F591F2F5F3F4F44
:100760002A173B0790F3CA010895CF92DF92EF92C8
:10077000FF920F931F93CF93DF936B018C01EC01DA
:1007800080E090E020E030E00EC0A881B981FD015A
:1007900001900020E9F73197EA1BFB0B8E0F9F1F9A
:1007A0002F5F3F4F22962C153D057CF361E070E0F2
:1007B00001960E94C600F82EE92EC0E0D0E009C0E4
:1007C000F801619171918F018F2D9E2D0E94E8019A
:1007D0002196CC15DD05A4F38F2D9E2DDF91CF91B1
:1007E0001F910F91FF90EF90DF90CF9008958F921F
:1007F0009F92AF92BF92CF92DF92EF92FF920F93B0
:100800001F93DF93CF9300D000D000D0CDB7DEB7D9
:100810007B018C010E94ED095B016C014B0120E022
:1008200030E048EC52E4C801B7010E94860B0E94F8
:10083000ED09DC01CB0164E670E00E94F90B7C015C
:10084000A114B10419F481E090E021C09501B7FE34
:1008500004C0222733272A193B09B901882777FDCD
:100860008095982F0E94200A0E94130B2EE83DE5E8
:1008700043E150E40E94540920E030E040E85FE3A7
:100880000E94F0080E94ED09CB0197FC019662E0FE
:1008900070E001960E94C600D82EC92E4AE050E0B2
:1008A000682F792FC4010E94FA01BC018D2D9C2D67
:1008B0000E94F301E114F10419F482E090E01FC0FA
:1008C0009701F7FE04C0222733272E193F09B901EB
:1008D000882777FD8095982F0E94200A0E94130B8D
:1008E0002EE83DE543E150E40E94540920E030E069
:1008F00040E85FE30E94F0080E94ED09CB0162E04E
:1009000070E001960E94C600182F092F4AE050E0BF
:10091000682F792FC7010E94FA01BC01812F902F07
:100920000E94F301FE01319686E0DF011D928A9557
:10093000E9F78DE191E09C838B83D982CA821D8384
:100940000E8363E070E0CF010E94B50326960FB6D8
:10095000F894DEBF0FBECDBFCF91DF911F910F91F5
:10096000FF90EF90DF90CF90BF90AF909F908F90CF
:100970000895BF92CF92DF92EF92FF920F931F9351
:10098000CF93DF93B82E6B01C0E0D0E07A0100274F
:10099000F7FC0095102F11C061E08B2D0E942608F6
:1009A000C801B7010E94C20760E08B2D0E94260893
:1009B000C801B7010E94C2072196CC15DD0564F37A
:1009C000DF91CF911F910F91FF90EF90DF90CF902B
:1009D000BF9008954F925F926F927F928F929F92F5
:1009E000AF92BF92CF92DF92EF92FF920F931F933D
:1009F000DF93CF9300D0CDB7DEB72C016B014AEF68
:100A000050E062E070E08DE090E00E94B904C9829D
:100A1000F20180818A83CE0101960E9498034C01E5
:100A200000E911E02AE030E040E050E060E070E0F2
:100A3000C8010E94320733E2632E31E0732EB30106
:100A4000C8010E944406EE24D7FCE094FE2C2AE064
:100A500030E0B701A601C8010E943207B301C80106
:100A60000E944406B201C8010E944406B301C801B5
:100A70000E9444062AE030E046E650E060E070E084
:100A8000C8010E943207B301C8010E944406AA248B
:100A900097FCA094BA2C2AE030E0B501A401C8016B
:100AA0000E943207B301C8010E9444062AE030E0E8
:100AB00041E050E060E070E0C8010E943207C801E8
:100AC0000E945C060F900F90CF91DF911F910F91C4
:100AD000FF90EF90DF90CF90BF90AF909F908F905E
:100AE0007F906F905F904F900895CF92DF92EF923A
:100AF000FF920F931F93DF93CF93CDB7DEB72A9763
:100B00000FB6F894DEBF0FBECDBF8C016B01FC01A8
:100B100060817181828193810E94F70345E0E42E18
:100B2000F12CEC0EFD1E86E0F70111928A95E9F793
:100B300083E291E098878F83F801608171818281DF
:100B400093810E94F7039E838D83F60180819181BA
:100B50009A87898719821A821B821C821A821982BB
:100B600063E070E0C7010E94B5039C838B8362E061
:100B700070E0CE0101960E94B5036BE670E00E9422
:100B8000EA042A960FB6F894DEBF0FBECDBFCF9110
:100B9000DF911F910F91FF90EF90DF90CF9008951C
:100BA000DF93CF9300D0CDB7DEB744EF51E063E0E1
:100BB00070E08DE090E00E94B9040E94210327E2DA
:100BC00031E03A832983BE016F5F7F4F0E94750534
:100BD0006AEF70E080E090E00E94C2070F900F90F3
:100BE000CF91DF9108950E94EC070E9489030E9433
:100BF000D005FDCF1F920F920FB60F9211248F9345
:100C00009F93EF93FF9380918C0190918D01892B9D
:100C100029F0E0918C01F0918D010995FF91EF9100
:100C20009F918F910F900FBE0F901F9018951F925C
:100C30000F920FB60F9211248F939F93EF93FF9310
:100C400080918E0190918F01892B29F0E0918E0186
:100C5000F0918F010995FF91EF919F918F910F90E6
:100C60000FBE0F901F9018958CE791E09093910123
:100C7000809390010895862F0E94AA080895CB01C1
:100C8000BA010E94710808950F931F93CF93DF93C9
:100C90008C01EB0109C02196D801ED91FC910190E6
:100CA000F081E02DC801099568816623A1F7DF91E5
:100CB000CF911F910F9108950F931F938C01DC0129
:100CC000ED91FC910190F081E02D6DE00995D80146
:100CD000ED91FC910190F081E02D6AE0C801099549
:100CE0001F910F9108952F923F924F925F926F92B2
:100CF0007F928F929F92AF92BF92CF92DF92EF92AC
:100D0000FF920F931F93DF93CF93CDB7DEB7A097DA
:100D10000FB6F894DEBF0FBECDBF1C016A017B0188
:100D2000411551056105710549F4DC01ED91FC9116
:100D30000190F081E02D60E3099554C08824992446
:100D40005401422E55246624772401E010E00C0F54
:100D50001D1F080D191DC701B601A30192010E94B4
:100D60000C0CF80160830894811C911CA11CB11C1F
:100D7000C701B601A30192010E940C0CC901DA015E
:100D80006C017D01C114D104E104F104F1F681E0AC
:100D9000E82EF12CEC0EFD1EE80CF91C3E01089427
:100DA000611C711CD501C4010197A109B1096C0135
:100DB000C818D90814C0F601EE0DFF1D60816A3015
:100DC00010F4605D01C0695CD101ED91FC9101906E
:100DD000F081E02DC10109950894E108F1086E1435
:100DE0007F0449F7A0960FB6F894DEBF0FBECDBFC3
:100DF000CF91DF911F910F91FF90EF90DF90CF90F7
:100E0000BF90AF909F908F907F906F905F904F902A
:100E10003F902F900895EF92FF920F931F93CF93DF
:100E2000DF93EC017A018B0177FF0FC0E881F98134
:100E30000190F081E02D6DE2099510950095F094F8
:100E4000E094E11CF11C011D111D2AE0B801A7016D
:100E5000CE010E947306DF91CF911F910F91FF90F9
:100E6000EF900895DC012115310541F4ED91FC91DD
:100E70000190F081E02D642F099508952A30310505
:100E800019F40E940B0708950E94730608958F704D
:100E9000909177019295990F990F907C982B909350
:100EA0007C0080917A00806480937A0080917A003F
:100EB00086FDFCCF2091780040917900942F80E04E
:100EC00030E0282B392BC90108951F920F920FB6DD
:100ED0000F9211242F938F939F93AF93BF93809181
:100EE000920190919301A0919401B091950180504D
:100EF000904CAF4FBF4F8093920190939301A0937A
:100F00009401B093950127C0809192019091930133
:100F1000A0919401B091950180549F41A040B040B0
:100F20008093920190939301A0939401B0939501C3
:100F30008091960190919701A0919801B0919901AB
:100F40000196A11DB11D8093960190939701A093E6
:100F50009801B09399018091920190919301A09191
:100F60009401B091950181549F41A040B04060F63A
:100F7000BF91AF919F918F912F910F900FBE0F90C6
:100F80001F901895EF92FF920F931F937B018C0196
:100F90008FB7F89440919601509197016091980114
:100FA000709199018FBF2FB7F8948091960190911D
:100FB0009701A0919801B09199012FBF841B950BC7
:100FC000A60BB70B8E159F05A007B10760F31F9105
:100FD0000F91FF90EF900895789484B5826084BD5E
:100FE00084B5816084BD85B5826085BD85B581602D
:100FF00085BDEEE6F0E0808181608083E1E8F0E08D
:10100000808182608083808181608083E0E8F0E07D
:10101000808181608083E1EBF0E080818460808367
:10102000E0EBF0E0808181608083EAE7F0E080819E
:1010300084608083808182608083808181608083FE
:101040008081806880831092C1000895482F50E00D
:10105000CA018F5D9E4FFC012491CA01835F9E4FA0
:10106000FC01949147505F4FFA0134913323C1F151
:10107000222331F1233021F4809180008F7705C045
:10108000243031F4809180008F7D8093800018C0DF
:10109000213019F484B58F7704C0223021F484B54F
:1010A0008F7D84BD0DC0263021F48091B0008F77F4
:1010B00005C0273029F48091B0008F7D8093B00067
:1010C000E32FF0E0E151FF4FE491F0E0662329F4D3
:1010D000808190958923808308958081892B8083E6
:1010E0000895EF92FF920F931F937B018C0122E0F2
:1010F00030E040E050E00E942E0C205E3E45484F1C
:101100005F4FCA01B901A80197010E942E0CC901C5
:10111000DA010197A109B109292F3A2F4B2F552741
:1011200047FD5A950196A11DB11D2093C500815020
:101130008093C400E1ECF0E0808180618083808155
:10114000886080838081806880831F910F91FF90E9
:10115000EF900895982F8091C00085FFFCCF909369
:10116000C60008951F920F920FB60F9211242F936D
:101170003F934F935F936F937F938F939F93AF931F
:10118000BF93EF93FF934091C600E0919A01F091D5
:101190009B01CF01019660E870E00E94F90B9C0171
:1011A00080919C0190919D012817390739F0E256F2
:1011B000FE4F408330939B0120939A01FF91EF9162
:1011C000BF91AF919F918F917F916F915F914F915F
:1011D0003F912F910F900FBE0F901F901895505870
:1011E000BB27AA270ED0A3C194D130F099D120F00B
:1011F00031F49F3F11F41EF464C10EF4E095E7FB57
:101200005AC1E92FA5D180F3BA1762077307840783
:10121000950718F071F49EF5BDC10EF4E0950B2E04
:10122000BA2FA02D0B01B90190010C01CA01A00138
:101230001124FF27591B99F0593F50F4503E68F193
:101240001A16F040A22F232F342F4427585FF3CFD4
:10125000469537952795A795F0405395C9F77EF4A5
:101260001F16BA0B620B730B840BBAF09150A1F0EE
:10127000FF0FBB1F661F771F881FC2F70EC0BA0F74
:10128000621F731F841F48F4879577956795B795FC
:10129000F7959E3F08F0B3CF9395880F08F09927F4
:1012A000EE0F9795879508950CD041C139D140F044
:1012B00030D130F021F45F3F19F0FDC051116BC106
:1012C00000C146D198F39923C9F35523B1F3951B77
:1012D000550BBB27AA2762177307840738F09F5F57
:1012E0005F4F220F331F441FAA1FA9F333D00E2EC6
:1012F0003AF0E0E830D091505040E695001CCAF733
:1013000029D0FE2F27D0660F771F881FBB1F2617F7
:1013100037074807AB07B0E809F0BB0B802DBF01CA
:10132000FF2793585F4F2AF09E3F510568F0C3C0D6
:1013300032C15F3FECF3983EDCF386957795679575
:10134000B795F7959F5FC9F7880F911D969587957B
:1013500097F90895E1E0660F771F881FBB1F62179A
:1013600073078407BA0720F0621B730B840BBA0B58
:10137000EE1F88F7E095089519F40EF09CC00AC19D
:10138000A0C0EED0C8F39638C0F707F80F92E894E3
:101390002BE33AEA48EB5FE7C7D10F920F920F9227
:1013A0004DB75EB70F927FD1E8E6F0E08DD04F9158
:1013B0005F91EF91FF91E595EE1FFF1F49F0FE57FA
:1013C000E0684427EE0F441FFA95E1F74195550B6D
:1013D000F1D00F9007FEE5C0089504D06894B111D4
:1013E000DAC00895BDD088F09F5790F0B92F9927A3
:1013F000B751A0F0D1F0660F771F881F991F1AF020
:10140000BA95C9F712C0B13081F0C4D0B1E00895E7
:10141000C1C0672F782F8827B85F39F0B93FCCF368
:10142000869577956795B395D9F73EF49095809515
:10143000709561957F4F8F4F9F4F0895E89409C035
:1014400097FB3EF490958095709561957F4F8F4FF7
:101450009F4F9923A9F0F92F96E9BB279395F6950D
:10146000879577956795B795F111F8CFFAF4BB0F8B
:1014700011F460FF1BC06F5F7F4F8F4F9F4F16C0EF
:10148000882311F096E911C0772321F09EE8872F79
:10149000762F05C0662371F096E8862F70E060E035
:1014A0002AF09A95660F771F881FDAF7880F9695AE
:1014B000879597F9089597F99F6780E870E060E055
:1014C00008959FEF80EC0895DF93CF931F930F93C0
:1014D000FF92EF92DF927B018C01689405C0DA2EB7
:1014E000EF0120D1FE01E894A59125913591459118
:1014F0005591AEF3EF0185DEFE019701A801DA9464
:1015000079F7DF90EF90FF900F911F91CF91DF91CE
:10151000089500240A941616170618060906089559
:1015200000240A9412161306140605060895092EBF
:101530000394000C11F4882352F0BB0F40F4BF2B2E
:1015400011F460FF04C06F5F7F4F8F4F9F4F08956E
:1015500057FD9058440F551F59F05F3F71F0479564
:10156000880F97FB991F61F09F3F79F08795089549
:10157000121613061406551FF2CF4695F1DF08C068
:10158000161617061806991FF1CF86957105610585
:1015900008940895E894BB2766277727CB0197F92D
:1015A00008959B01AC0160E070E080E89FE37CCE91
:1015B00082CF0FC1D5DFE8F39923D9F3940F511DE2
:1015C000BBF39150504094F059F0882332F0660FED
:1015D000771F881F91505040C1F79E3F510544F737
:1015E000880F911D9695879597F908955F3FACF008
:1015F000983E9CF0BB27869577956795B79508F43C
:10160000B1609395C1F7BB0F58F711F460FFE8CFB5
:101610006F5F7F4F8F4F9F4FE3CFBDCF0EF0D9C08D
:1016200050CF689448CF9CDFC8F39923D1F3C6F319
:10163000DF93CF931F930F93FF92C92FDD2788234A
:101640002AF02197660F771F881FDAF720E030E035
:1016500040E85FEB9FE3883920F0803E30F0219630
:101660008F77BEDDE0E9F0E003C0BADDEDEBF0E03E
:101670002BDF8B01BE01EC01FB2E6F5771097595B5
:10168000771F880B990BDCDE28E132E741E35FE34B
:1016900049D0AF2D9801AE01FF900F911F91CF91CE
:1016A000DF91AFDD44CFFA01DC01AA0FBB1F9B0124
:1016B000AC01BF5728F422273327442750781FC096
:1016C000B75188F4AB2F0024469537952795011C18
:1016D000A395D2F3002069F0220F331F441FB39566
:1016E000DAF30DD07CCD61307105A0E88A07B946E8
:1016F00030F49B01AC0166277727882790783096D5
:1017000021F0208331834283538308950BD00FCF80
:1017100000DF28F005DF18F0952309F0CCCED1CEFC
:10172000112439CF15DFA0F3959FD1F3950F50E029
:10173000551F629FF001729FBB27F00DB11D639F83
:10174000AA27F00DB11DAA1F649F6627B00DA11D29
:10175000661F829F2227B00DA11D621F739FB00DCF
:10176000A11D621F839FA00D611D221F749F33273F
:10177000A00D611D231F849F600D211D822F762FD8
:101780006A2F11249F5750408AF0E1F088234AF0D5
:10179000EE0FFF1FBB1F661F771F881F9150504021
:1017A000A9F79E3F510570F086CEF5CE5F3FECF372
:1017B000983EDCF3869577956795B795F795E7950D
:1017C0009F5FC1F7FE2B880F911D9695879597F91E
:1017D00008959F3F49F0915028F486957795679535
:1017E000B7959F5F80389F4F880F9695879597F99B
:1017F000089597FB092E07260AD077FD04D049D01B
:1018000006D000201AF4709561957F4F0895F6F781
:10181000909581959F4F0895A1E21A2EAA1BBB1B9C
:10182000FD010DC0AA1FBB1FEE1FFF1FA217B307AC
:10183000E407F50720F0A21BB30BE40BF50B661FC2
:10184000771F881F991F1A9469F760957095809586
:1018500090959B01AC01BD01CF01089597FB092E26
:1018600005260ED057FD04D0D7DF0AD0001C38F46F
:1018700050954095309521953F4F4F4F5F4F0895BC
:10188000F6F790958095709561957F4F8F4F9F4F9C
:101890000895AA1BBB1B51E107C0AA1FBB1FA617B7
:1018A000B70710F0A61BB70B881F991F5A95A9F709
:1018B00080959095BC01CD010895EE0FFF1F059016
:0A18C000F491E02D0994F894FFCF95
:1018CA00206D6F6E7468732C2000207765656B73CA
:1018DA002C200020646179732C20003A002E004FDE
:1018EA004646002C200000646567726565732043D4
:1018FA00002B2B2B0041545752004154434E0043B6
:10190A005249544943414C004552524F52005741A3
:10191A00524E494E4700494E464F004445425547AC
:10192A000020002202000000007A4400E076450010
:0E193A00401C460000954301000000003B06E3
:00000001FF
