:100000000C9435000C94C1000C94DE000C945D003F
:100010000C945D000C945D000C945D000C945F00EA
:100020000C945D000C945D000C945D000C945D00DC
:100030000C945D000C945D000C945D000C945D00CC
:100040000C9423010C945D000C9425020C945D002B
:100050000C945D000C945D000C945D000C945D00AC
:100060000C945D000C945D00FB0011241FBECFEFCB
:10007000D4E0DEBFCDBF15E0A0E0B1E0ECE9F5E0F3
:1000800002C005900D92A830B107D9F715E0A8E09D
:10009000B5E001C01D92A03AB107E1F710E0CAE651
:1000A000D0E004C02297FE010E94C802C836D107E2
:1000B000C9F70E94BA000C94CC020C9400001F9265
:1000C0000F920FB60F9211242F933F934F938F935C
:1000D0009F932091080530910905C901819690935D
:1000E000090580930805895E93407CF0275C3340C6
:1000F000309309052093080580910A0590910B051E
:10010000019690930B0580930A0580910A059091C2
:100110000B058D33910574F0CC9790930B0580936C
:100120000A0580910C0590910D05019690930D059F
:1001300080930C059F918F914F913F912F910F903C
:100140000FBE0F901F90189564EF71E080E090E073
:100150000E94800161E071E082E195E00E940B0164
:10016000089540E05BE460E070E082E195E00E9489
:10017000060108950E94AA010E94B1000E94A400F5
:10018000FDCF1F920F920FB60F9211248F939F9362
:10019000EF93FF9380910E0590910F05892B29F025
:1001A000E0910E05F0910F050995FF91EF919F9158
:1001B0008F910F900FBE0F901F9018951F920F9266
:1001C0000FB60F9211248F939F93EF93FF9380911B
:1001D000100590911105892B29F0E0911005F091FF
:1001E00011050995FF91EF919F918F910F900FBE8F
:1001F0000F901F90189585E095E0909313058093DC
:1002000012050895862F0E941D020895CB01BA01A0
:100210000E94E40108950F931F93CF93DF938C0105
:10022000EB0109C02196D801ED91FC910190F0817C
:10023000E02DC801099568816623A1F7DF91CF9170
:100240001F910F9108951F920F920FB60F921124D4
:100250002F938F939F93AF93BF93809114059091A9
:100260001505A0911605B09117058050904CAF4F21
:10027000BF4F8093140590931505A0931605B09376
:10028000170527C08091140590911505A0911605BA
:10029000B091170580549F41A040B0408093140551
:1002A00090931505A0931605B09317058091180536
:1002B00090911905A0911A05B0911B050196A11DF9
:1002C000B11D8093180590931905A0931A05B0935A
:1002D0001B058091140590911505A0911605B0910C
:1002E000170581549F41A040B04060F6BF91AF9187
:1002F0009F918F912F910F900FBE0F901F90189587
:10030000EF92FF920F931F937B018C018FB7F894AC
:10031000409118055091190560911A0570911B05BF
:100320008FBF2FB7F8948091180590911905A0916F
:100330001A05B0911B052FBF841B950BA60BB70B9D
:100340008E159F05A007B10760F31F910F91FF90D5
:10035000EF900895789484B5826084BD84B58160FF
:1003600084BD85B5826085BD85B5816085BDEEE6BD
:10037000F0E0808181608083E1E8F0E0808182604C
:100380008083808181608083E0E8F0E0808181600B
:100390008083E1EBF0E0808184608083E0EBF0E03B
:1003A000808181608083EAE7F0E0808184608083DF
:1003B0008081826080838081816080838081806889
:1003C00080831092C1000895EF92FF920F931F93C4
:1003D0007B018C0122E030E040E050E00E94970277
:1003E000205E3E45484F5F4FCA01B901A801970101
:1003F0000E949702C901DA010197A109B109292FC9
:100400003A2F4B2F552747FD5A950196A11DB11D37
:100410002093C50081508093C400E1ECF0E080811E
:100420008061808380818860808380818068808310
:100430001F910F91FF90EF900895982F8091C00029
:1004400085FFFCCF9093C60008951F920F920FB6C0
:100450000F9211242F933F934F935F936F937F934A
:100460008F939F93AF93BF93EF93FF934091C600F9
:10047000E0911C05F0911D05CF01019660E870E048
:100480000E9462029C0180911E0590911F05281711
:10049000390739F0E05EFA4F408330931D05209311
:1004A0001C05FF91EF91BF91AF919F918F917F912B
:1004B0006F915F914F913F912F910F900FBE0F90D1
:1004C0001F90189597FB092E07260AD077FD04D0B8
:1004D00049D006D000201AF4709561957F4F089599
:1004E000F6F7909581959F4F0895A1E21A2EAA1BC9
:1004F000BB1BFD010DC0AA1FBB1FEE1FFF1FA217D4
:10050000B307E407F50720F0A21BB30BE40BF50BD0
:10051000661F771F881F991F1A9469F76095709559
:10052000809590959B01AC01BD01CF01089597FB8B
:10053000092E05260ED057FD04D0D7DF0AD0001CA7
:1005400038F450954095309521953F4F4F4F5F4F70
:100550000895F6F790958095709561957F4F8F4F30
:100560009F4F0895AA1BBB1B51E107C0AA1FBB1FC9
:10057000A617B70710F0A61BB70B881F991F5A952F
:10058000A9F780959095BC01CD010895EE0FFF1F4E
:0C0590000590F491E02D0994F894FFCF41
:10059C00004D4F4F002E003A202000494E464F0090
:1005AC0042726F616463617374696E672072656116
:1005BC0064696E67732E202E202E004552524F52C6
:1005CC000052656164696E677320616E6420756E9C
:1005DC0069747320766563746F72732064696666E0
:1005EC006572656E74206C656E677468733B2074FD
:1005FC00686579206E65656420746F20626520746F
:10060C0068652073616D652073697A652E004445B9
:10061C00425547005570646174696E672073656E4E
:10062C00736F722076616C756573202E202E202ED0
:10063C000053656E736F722076616C7565732075EF
:10064C007064617465642E0053746F7070696E67AA
:10065C0020696E746572727570742074696D657240
:10066C00322E202E202E00496E74657272757074B5
:10067C002074696D6572322073746F707065642EAE
:10068C00005374617274696E6720696E746572725E
:10069C007570742074696D6572322E202E202E00B8
:1006AC00496E746572727570742074696D657232FE
:1006BC0020737461727465642E00496E697469618B
:1006CC006C697A696E6720696E7465727275707484
:1006DC002074696D657232202E202E202E00496EFA
:1006EC00746572727570742074696D6572322069EC
:1006FC006E697469616C697A65642E005265736504
:10070C007474696E6720636C6F636B2E202E202EC1
:10071C0000436C6F636B2072657365742E005265B9
:10072C0063656976696E6720646174612E202E2082
:10073C002E00446174612072656365697665642E70
:10074C000043616C63756C6174696E6720636865E6
:10075C00636B73756D20666F72206D657373616763
:10076C0065202E202E202E00426C696E6B696E6700
:10077C0020696E64696361746F72204C45442E204D
:10078C002E202E00426567696E6E696E6720746F4D
:10079C002073656E64206D657373616765202E2010
:1007AC002E202E0053656E74206D65737361676522
:1007BC002E004D616B696E6720726571756573747F
:1007CC00202E202E2000436F6D6D756E6963617451
:1007DC00696F6E207769746820646F6E676C652032
:1007EC0074696D6564206F75740057616974696E06
:1007FC006720746F2072656365697665206D65731B
:10080C0073616765202E202E202E004E6F206D65A3
:10081C0073736167652072656365697665642E0024
:10082C004D65737361676520726563656976656490
:10083C002E00536561726368696E6720666F722063
:10084C00646F6E676C65202E202E202E00446F6E18
:10085C00676C6520666F756E642E00446F6E676CF6
:10086C0065206E6F7420666F756E642C2074696DD4
:10087C006564206F75742E0057616B696E6720611B
:10088C00726475696E6F2E202E202E005075747454
:10089C00696E672041726475696E6F20746F207386
:1008AC006C6565702E202E202E0043616C63756C78
:1008BC006174696E67206261756420726174652071
:1008CC00706172616D657465722E202E202E005839
:1008DC00426565206177616B652E00576F6B6520F3
:1008EC00584265652E2E2E004368616E67696E67EF
:1008FC002058426565206261756420726174652EB2
:10090C00202E202E002B2B2B0041545752004154EB
:10091C00434E0058426565206261756420726174B3
:10092C0065206368616E6765642E00436F6E66694F
:10093C00677572696E6720646174616C6F67676557
:10094C00722E202E202E00446174616C6F676765D7
:10095C007220636F6E66696775726564005075749A
:10096C0074696E67205842656520746F20736C65DE
:10097C0065702E202E202E0050757474696E6720C1
:10098C005842656520746F20736C6565702E2E2E31
:08099C00000000000002010050
:00000001FF
