:100000000C9435000C945D000C945D000C945D0024
:100010000C945D000C945D000C9421010C945D0027
:100020000C945D000C945D000C945D000C945D00DC
:100030000C945D000C945D000C945D000C945D00CC
:100040000C9418030C945D000C946F040C945D00E8
:100050000C945D000C945D000C945D000C945D00AC
:100060000C945D000C945D00700111241FBECFEF55
:10007000D4E0DEBFCDBF11E0A0E0B1E0E0E3FAE004
:1000800002C005900D92A830B107D9F711E0A8E0A1
:10009000B1E001C01D92AE39B107E1F710E0CAE648
:1000A000D0E004C02297FE010E941205C836D10795
:1000B000C9F70E9469010C9416050C940000E4E64F
:1000C000F0E080818068808380818460808380818B
:1000D0008860808380818064808383B78E7F83BFC4
:1000E00083B78D7F83BF83B7846083BF83B7877FE8
:1000F00083BF08950E945F000895EAE7F0E08081E1
:100100008F77808383B7817F846083BF83B781606B
:1001100083BF83B7816083BF889583B78E7F83BF9A
:1001200083B78E7F83BFEAE7F0E0808180688083B9
:1001300008958A30910514F089E090E0282F277007
:1001400008970CF02062206184B7877F84BF80917C
:10015000600088618093600020936000809160005F
:100160008064809360000895EF92FF920F931F9335
:10017000CF93DF9320910A0130910B0180E19EE043
:10018000AC01249FC001259F900D349F900D112438
:1001900040910C0150910D012CE330E0B901469FD4
:1001A0009001479F300D569F300D1124820F931FF1
:1001B00020910E0130910F01820F931FAA2797FD06
:1001C000A095BA2F9C01AD0163E0569547953795F0
:1001D00027956A95D1F779018C010770107089E035
:1001E00090E00E949900C0E0D0E003C00E947D0032
:1001F0002196CE15DF05D0F30430110540F088E0DC
:1002000090E00E9499000E947D000450104002304E
:10021000110540F087E090E00E9499000E947D0067
:1002200002501040012B31F086E090E00E949900CE
:100230000E947D00DF91CF911F910F91FF90EF9071
:1002400008951F920F920FB60F9211248F9381E0A1
:10025000809300018F910F900FBE0F901F90189503
:10026000809100018130D9F4109200010E94B40005
:10027000609108017091090180E191E00E94E8021B
:100280008091080190910901019690930901809352
:10029000080162E070E080E090E00E94830308952E
:1002A00040E05BE460E070E080E191E00E94840166
:1002B00010920B0110920A0181E090E090930D01E1
:1002C00080930C0185E090E090930F0180930E01E4
:1002D00008950E94BB030E9450010E943001FDCF8F
:1002E00085E091E090931101809310010895862F8D
:1002F0000E942E0408950E94660408950E944704F7
:1003000008950E9436040895CB01BA010E94F503B6
:100310000895DC01ED91FC910190F081E02D0995AB
:100320000895DC01ED91FC910190F081E02D09959B
:1003300008950F931F93CF93DF938C01EB0109C0B6
:100340002196D801ED91FC910190F081E02DC8013A
:10035000099568816623A1F7DF91CF911F910F91D5
:1003600008950F931F938C01DC01ED91FC91019096
:10037000F081E02D6DE00995D801ED91FC9101909F
:10038000F081E02D6AE0C80109951F910F91089551
:100390000F931F938C01DC01ED91FC910190F08192
:1003A000E02D0995C8010E94B1011F910F91089598
:1003B0000F931F938C010E949901C8010E94B10103
:1003C0001F910F9108950F931F938C01DC01ED9104
:1003D000FC910190F081E02D0995C8010E94B101C6
:1003E0001F910F9108952F923F924F925F926F92BB
:1003F0007F928F929F92AF92BF92CF92DF92EF92B5
:10040000FF920F931F93DF93CF93CDB7DEB7A097E3
:100410000FB6F894DEBF0FBECDBF1C016A017B0191
:10042000411551056105710549F4DC01ED91FC911F
:100430000190F081E02D60E3099554C0882499244F
:100440005401422E55246624772401E010E00C0F5D
:100450001D1F080D191DC701B601A30192010E94BD
:10046000BF04F80160830894811C911CA11CB11C7D
:10047000C701B601A30192010E94BF04C901DA01BC
:100480006C017D01C114D104E104F104F1F681E0B5
:10049000E82EF12CEC0EFD1EE80CF91C3E01089430
:1004A000611C711CD501C4010197A109B1096C013E
:1004B000C818D90814C0F601EE0DFF1D60816A301E
:1004C00010F4605D01C0695CD101ED91FC91019077
:1004D000F081E02DC10109950894E108F1086E143E
:1004E0007F0449F7A0960FB6F894DEBF0FBECDBFCC
:1004F000CF91DF911F910F91FF90EF90DF90CF9000
:10050000BF90AF909F908F907F906F905F904F9033
:100510003F902F9008952AE00E94F30108950F93D1
:100520001F938C010E948B02C8010E94B1011F9190
:100530000F910895AB0160E070E00E948B02089576
:100540000F931F938C01AB0160E070E00E948B025F
:10055000C8010E94B1011F910F910895EF92FF927F
:100560000F931F93CF93DF93EC017A018B0177FFF9
:100570000FC0E881F9810190F081E02D6DE20995CD
:1005800010950095F094E094E11CF11C011D111DE3
:100590002AE0B801A701CE010E94F301DF91CF91BB
:1005A0001F910F91FF90EF9008950F931F938C016F
:1005B0000E94AE02C8010E94B1011F910F910895DF
:1005C000AB01662757FD6095762F0E94AE02089515
:1005D0000F931F938C01AB01662757FD6095762F13
:1005E0000E94AE02C8010E94B1011F910F910895AF
:1005F000DC012115310541F4ED91FC910190F08170
:10060000E02D642F099508952A30310519F40E94D0
:10061000AE0208950E94F30108950F931F938C0179
:100620000E94F802C8010E94B1011F910F91089524
:100630001F920F920FB60F9211242F938F939F93B7
:10064000AF93BF938091120190911301A091140177
:10065000B09115018050904CAF4FBF4F8093120165
:1006600090931301A0931401B093150127C08091BA
:10067000120190911301A0911401B09115018054C1
:100680009F41A040B0408093120190931301A0932A
:100690001401B09315018091160190911701A0915A
:1006A0001801B09119010196A11DB11D8093160189
:1006B00090931701A0931801B09319018091120132
:1006C00090911301A0911401B091150181549F41A3
:1006D000A040B04060F6BF91AF919F918F912F9154
:1006E0000F900FBE0F901F9018958FB7F894209120
:1006F00016013091170140911801509119018FBFD7
:10070000B901CA010895EF92FF920F931F937B01E5
:100710008C018FB7F89440911601509117016091A8
:100720001801709119018FBF2FB7F89480911601AD
:1007300090911701A0911801B09119012FBF841B4E
:10074000950BA60BB70B8E159F05A007B10760F39D
:100750001F910F91FF90EF900895019759F0019725
:1007600049F0FC01EE0FFF1F31978FB7F8943197D6
:10077000F1F78FBF0895789484B5826084BD84B505
:10078000816084BD85B5826085BD85B5816085BD8C
:10079000EEE6F0E0808181608083E1E8F0E0808136
:1007A00082608083808181608083E0E8F0E08081E6
:1007B00081608083E1EBF0E0808184608083E0EB06
:1007C000F0E0808181608083EAE7F0E080818460EE
:1007D000808380818260808380818160808380814A
:1007E000806880831092C1000895EF92FF920F936A
:1007F0001F937B018C0122E030E040E050E00E943A
:10080000E104205E3E45484F5F4FCA01B901A8018F
:1008100097010E94E104C901DA010197A109B10918
:10082000292F3A2F4B2F552747FD5A950196A11D89
:10083000B11D2093C50081508093C400E1ECF0E02D
:1008400080818061808380818860808380818068EE
:1008500080831F910F91FF90EF900895982F8091C2
:10086000C00085FFFCCF9093C600089580911A01C7
:1008700090911B0180589F4F20911C0130911D01C8
:10088000821B930B60E870E00E94AC0408954091D5
:100890001C0150911D0180911A0190911B01841738
:1008A000950719F42FEF3FEF0FC0FA01E25EFE4FFC
:1008B0002081CA01019660E870E00E94AC04909328
:1008C0001D0180931C0130E0C901089580911C0135
:1008D00090911D0190931B0180931A0108951F921E
:1008E0000F920FB60F9211242F933F934F935F9364
:1008F0006F937F938F939F93AF93BF93EF93FF93E8
:100900004091C600E0911A01F0911B01CF010196C0
:1009100060E870E00E94AC049C0180911C01909101
:100920001D012817390739F0E25EFE4F40833093EE
:100930001B0120931A01FF91EF91BF91AF919F91FD
:100940008F917F916F915F914F913F912F910F9078
:100950000FBE0F901F90189597FB092E07260AD0FF
:1009600077FD04D049D006D000201AF47095619527
:100970007F4F0895F6F7909581959F4F0895A1E2D6
:100980001A2EAA1BBB1BFD010DC0AA1FBB1FEE1F09
:10099000FF1FA217B307E407F50720F0A21BB30B54
:1009A000E40BF50B661F771F881F991F1A9469F7D0
:1009B00060957095809590959B01AC01BD01CF012C
:1009C000089597FB092E05260ED057FD04D0D7DFDA
:1009D0000AD0001C38F450954095309521953F4F32
:1009E0004F4F5F4F0895F6F79095809570956195FC
:1009F0007F4F8F4F9F4F0895AA1BBB1B51E107C02C
:100A0000AA1FBB1FA617B70710F0A61BB70B881F9E
:100A1000991F5A95A9F780959095BC01CD0108952D
:100A2000EE0FFF1F0590F491E02D0994F894FFCF8D
:080A3000010000000077010045
:00000001FF
