:100000000C949C000C94C4000C94C4000C94C40088
:100010000C94C4000C94C4000C94DF010C94C40034
:100020000C94C4000C94C4000C94C4000C94C40040
:100030000C94C4000C94C4000C94C4000C94C40030
:100040000C944F060C94C4000C94D0080C94C4007B
:100050000C94C4000C94C4000C94C4000C94C40010
:100060000C94C4000C94C40007634236B79BD8A715
:100070001A39685618AEBAAB558C1D3CB7CC5763CD
:10008000BD6DEDFD753EF6177231BF000000803F7B
:1000900008000000BE922449123EABAAAA2ABECD97
:1000A000CCCC4C3E00000080BEABAAAAAA3E000009
:1000B0000000BF000000803F000000000008417801
:1000C000D3BB4387D1133D190E3CC3BD4282AD2B38
:1000D0003E68EC8276BED98FE1A93E4C80EFFFBE30
:1000E00001C4FF7F3F0000000000000024272A0019
:1000F0000025282B000023262904040404040404FA
:1001000004020202020202030303030303010204C6
:100110000810204080010204081020010204081089
:100120002000000007000201000003040600000098
:10013000000000000000A70411241FBECFEFD4E090
:10014000DEBFCDBF11E0A0E0B1E0ECE0F1E202C023
:1001500005900D92AE33B107D9F713E0AEE3B1E0ED
:1001600001C01D92AE31B107E1F711E0C8E3D1E063
:1001700004C02297FE010E944910C633D107C9F777
:100180000E94A0040C9484100C940000EEE3F1E0B3
:1001900080E004C09C3209F0890F31969081992348
:1001A000C9F70895EF92FF920F931F936091780221
:1001B00070917902882777FD8095982F0E94EB0D2A
:1001C0007B018C0160917A0270917B02882777FD18
:1001D0008095982F0E94EB0D9B01AC01C801B701DF
:1001E0000E941F0D20E030E040E85FE30E94BA0C5F
:1001F00020912E0130912F01409130015091310119
:100200000E94510F6093800270938102809382025A
:10021000909383021F910F91FF90EF900895E4E671
:10022000F0E0808180688083808184608083808129
:100230008860808380818064808383B78E7F83BF62
:1002400083B78D7F83BF83B7846083BF83B7877F86
:1002500083BF0895EAE7F0E080818F77808383B7DA
:10026000817F846083BF83B7816083BF83B78160F0
:1002700083BF889583B78E7F83BF83B78E7F83BF0D
:10028000EAE7F0E080818068808308958A309105F4
:1002900014F089E090E0282F277008970CF0206276
:1002A000206184B7877F84BF8091600088618093DC
:1002B0006000209360008091600080648093600003
:1002C0000895CF92DF92EF92FF920F931F93CF93F7
:1002D000DF93209170013091710180E19EE0289FB1
:1002E0007001299FF00C389FF00C112420917201AD
:1002F000309173018CE390E0AC01249FC001259FF5
:10030000900D349F900D1124E80EF91E809120016C
:1003100090912101E80EF91E0027F7FC0095102F9F
:10032000C801B7012AE030E040E050E00E94F60F3B
:10033000C901DA01E81AF90A0A0B1B0BD801C70137
:1003400023E0B695A795979587952A95D1F76C01E7
:1003500087010770107089E090E00E944601C0E0BC
:10036000D0E003C00E942A012196CC15DD05D0F310
:100370000430110540F088E090E00E9446010E94A0
:100380002A01045010400230110540F087E090E04F
:100390000E9446010E942A0102501040012B31F0B8
:1003A00086E090E00E9446010E942A01DF91CF91F1
:1003B0001F910F91FF90EF90DF90CF9008951F92C3
:1003C0000F920FB60F9211240F900FBE0F901F9037
:1003D0001895EF92FF920F931F93E0902601F090F3
:1003E00027010091280110912901C801B7019058F7
:1003F00020912A0130912B0140912C0150912D0127
:100400000E941F0D0E948C0D20912201309123012A
:1004100040912401509125010E94510F9B01AC0194
:10042000609180027091810280918202909183029A
:100430000E941F0D0E94DE0E9B01AC01C801B70196
:100440000E941F0D20E030E848E853E40E94BA0CF7
:10045000609388027093890280938A0290938B0242
:100460001F910F91FF90EF90089580E00E942F0759
:10047000909379028093780281E00E942F079093F5
:100480007B0280937A0208950E9435020E94D20076
:100490000E94E901089560E082E00E94BF0708958C
:1004A00061E082E00E94BF0708951F9310E061E0C1
:1004B00084E00E94BF0764E170E080E090E00E9469
:1004C000BA0660E084E00E94BF0764E170E080E06B
:1004D00090E00E94BA061F5F153049F71F910895FA
:1004E00061E082E00E94A10760E083E00E94A10732
:1004F00061E084E00E94A1070E944B020895AF9240
:10050000BF92CF92DF92EF92FF920F931F93CF9300
:10051000DF937C0110927702109276020E94AC0663
:100520005B016C010027F7FC0095102FAE0CBF1C7F
:10053000C01ED11E0FEF1FEF19C080917602C82F89
:10054000D0E080E992E00E94B504CA58DE4F88836B
:1005500090917602E92FF0E0EA58FE4F80818138D1
:1005600011F401E010E09F5F909376020E94AC06C8
:100570006A157B058C059D0558F48FEF0F3F180712
:1005800079F480E992E00E94B804882379F3D5CF0A
:100590008FEF0F3F180721F4809176028093770246
:1005A000C801DF91CF911F910F91FF90EF90DF90E5
:1005B000CF90BF90AF900895CF92DF92EF92FF92CD
:1005C0000F931F93CF93DF9310E001E02AE030E018
:1005D00043E050E060E070E080E992E00E94440671
:1005E00084E690E00E947F028F5F9F4F39F42AE0FB
:1005F00030E047E050E060E070E069C08091770251
:10060000A82FB0E0FD01EA58FE4F8081803809F044
:1006100058C08091760290E08A1B9B0B099709F0E5
:1006200050C0FD01E958FE4F90E09D0123583E4F18
:100630008191980FE217F307D9F7AA58BE4F179682
:100640008C919817B9F52AE030E041E050E060E085
:1006500070E080E992E00E94440661E070E080E092
:1006600090E00E94BA06E0917702F0E0EA58FE4F6F
:10067000D180CC2482819601280F311D30937101E5
:1006800020937001F380EE2484819701280F311D9F
:100690003093730120937201D581C0E086819E0161
:1006A000280F311D309321012093200100931F0159
:1006B00081E013C02AE030E044E050E060E070E008
:1006C00006C02AE030E048E050E060E070E080E9F9
:1006D00092E00E9444061F5F80E012301CF48823E1
:1006E00009F474CFDF91CF911F910F91FF90EF909C
:1006F000DF90CF900895AF92BF92CF92DF92EF92AA
:10070000FF920F931F937C010E94AC065B016C016A
:100710000027F7FC0095102FAE0CBF1CC01ED11E89
:1007200080E992E00E94B8048823B9F40E94AC06E4
:100730006A157B058C059D0580F4F2CF80E992E077
:100740000E94B5049C01C9011F910F91FF90EF9089
:10075000DF90CF90BF90AF90089580E992E00E9423
:10076000B804882359F72FEF3FEFEDCFAF92BF9238
:10077000CF92DF92EF92FF920F931F93E090880247
:10078000F090890200918A0210918B02C801B70192
:100790000E94B80D5B016C01B501882777FD80953B
:1007A000982F0E94EB0D9B01AC01C801B7010E947C
:1007B000BA0C20E030E048EC52E40E94510F0E9455
:1007C000B80D7F936F93BF92AF9280911C0190916F
:1007D0001D019F938F9380E091E09F938F930EE391
:1007E00011E01F930F930E94180AF80140E08DB7A3
:1007F0009EB70A960FB6F8949EBF0FBE8DBF04C079
:100800008C3209F0480F319680818823C9F7AA24D9
:10081000A394E42EFF2400E010E080E992E00E941F
:10082000B8048823F9F080E992E00E94B2042AE03B
:1008300030E040E050E061E070E080E090E00E9455
:1008400094099B01AC01660F771F620F731F660F3F
:10085000771F660F771F882777FD8095982F0E9456
:10086000BA0633C02AE030E040E850E060E070E0D3
:1008700080E992E00E942F066EE371E080E992E049
:100880000E94D0042AE030E0B801A70180E992E09C
:100890000E942F066CE280E992E00E94C8042AE0E0
:1008A00030E041E850E060E070E080E992E00E94D2
:1008B000440684E690E00E947B038130910551F06C
:1008C000029719F40E94DC0205C0A39493E0A916D4
:1008D00009F0A3CF1F910F91FF90EF90DF90CF9081
:1008E000BF90AF9008950E9455020E9435020E9469
:1008F000D2000E94E9010E94B60380917401909198
:1009000075010196909375018093740108950E947A
:1009100061010E94730408950E94550240E05BE467
:1009200060E070E080E992E00E94BB0485E00E94F4
:100930002F070E94B2090E940F010E9470020895C1
:100940000E94F2060E948C040E948704FDCF86E379
:1009500091E090939102809390020895862F0E94D7
:100960008F0808950E94C70808950E94A808089556
:100970000E9497080895CB01BA010E945608089575
:10098000DC01ED91FC910190F081E02D0995089535
:10099000DC01ED91FC910190F081E02D0995089525
:1009A0000F931F93CF93DF938C01EB0109C0219626
:1009B000D801ED91FC910190F081E02DC8010995DD
:1009C00068816623A1F7DF91CF911F910F91089560
:1009D0000F931F938C01DC01ED91FC910190F0814C
:1009E000E02D6DE00995D801ED91FC910190F08129
:1009F000E02D6AE0C80109951F910F9108950F93AA
:100A00001F938C01DC01ED91FC910190F081E02DB0
:100A10000995C8010E94E8041F910F9108950F9352
:100A20001F938C010E94D004C8010E94E8041F910A
:100A30000F9108950F931F938C01DC01ED91FC91B0
:100A40000190F081E02D0995C8010E94E8041F91F2
:100A50000F9108952F923F924F925F926F927F92E3
:100A60008F929F92AF92BF92CF92DF92EF92FF92BE
:100A70000F931F93DF93CF93CDB7DEB7A0970FB639
:100A8000F894DEBF0FBECDBF1C016A017B0141158A
:100A900051056105710549F4DC01ED91FC9101906E
:100AA000F081E02D60E3099554C088249924540115
:100AB000422E55246624772401E010E00C0F1D1F00
:100AC000080D191DC701B601A30192010E94F60F7E
:100AD000F80160830894811C911CA11CB11CC70102
:100AE000B601A30192010E94F60FC901DA016C015F
:100AF0007D01C114D104E104F104F1F681E0E82E96
:100B0000F12CEC0EFD1EE80CF91C3E010894611C52
:100B1000711CD501C4010197A109B1096C01C81864
:100B2000D90814C0F601EE0DFF1D60816A3010F483
:100B3000605D01C0695CD101ED91FC910190F08193
:100B4000E02DC10109950894E108F1086E147F04B5
:100B500049F7A0960FB6F894DEBF0FBECDBFCF9178
:100B6000DF911F910F91FF90EF90DF90CF90BF909A
:100B7000AF909F908F907F906F905F904F903F903D
:100B80002F9008952AE00E942A0508950F931F933D
:100B90008C010E94C205C8010E94E8041F910F91B8
:100BA0000895AB0160E070E00E94C20508950F93C4
:100BB0001F938C01AB0160E070E00E94C205C80188
:100BC0000E94E8041F910F910895EF92FF920F93F6
:100BD0001F93CF93DF93EC017A018B0177FF0FC056
:100BE000E881F9810190F081E02D6DE20995109581
:100BF0000095F094E094E11CF11C011D111D2AE008
:100C0000B801A701CE010E942A05DF91CF911F9163
:100C10000F91FF90EF9008950F931F938C010E9406
:100C2000E505C8010E94E8041F910F910895AB01EA
:100C3000662757FD6095762F0E94E50508950F936E
:100C40001F938C01AB01662757FD6095762F0E949C
:100C5000E505C8010E94E8041F910F910895DC0189
:100C60002115310541F4ED91FC910190F081E02DC9
:100C7000642F099508952A30310519F40E94E5057D
:100C800008950E942A0508950F931F938C010E94D6
:100C90002F06C8010E94E8041F910F9108951F922A
:100CA0000F920FB60F9211242F938F939F93AF93B0
:100CB000BF938091920290919302A0919402B0917F
:100CC00095028050904CAF4FBF4F8093920290930B
:100CD0009302A0939402B093950227C08091920250
:100CE00090919302A0919402B091950280549F41FB
:100CF000A040B0408093920290939302A0939402FC
:100D0000B09395028091960290919702A0919802DB
:100D1000B09199020196A11DB11D80939602909306
:100D20009702A0939802B0939902809192029091B9
:100D30009302A0919402B091950281549F41A040EA
:100D4000B04060F6BF91AF919F918F912F910F901E
:100D50000FBE0F901F9018958FB7F89420919602B0
:100D60003091970240919802509199028FBFB9013A
:100D7000CA010895EF92FF920F931F937B018C019C
:100D80008FB7F89440919602509197026091980223
:100D9000709199028FBF2FB7F8948091960290912D
:100DA0009702A0919802B09199022FBF841B950BD6
:100DB000A60BB70B8E159F05A007B10760F31F9117
:100DC0000F91FF90EF900895019759F0019749F026
:100DD000FC01EE0FFF1F31978FB7F8943197F1F7B1
:100DE0008FBF0895789484B5826084BD84B5816096
:100DF00084BD85B5826085BD85B5816085BDEEE623
:100E0000F0E0808181608083E1E8F0E080818260B1
:100E10008083808181608083E0E8F0E08081816070
:100E20008083E1EBF0E0808184608083E0EBF0E0A0
:100E3000808181608083EAE7F0E080818460808344
:100E400080818260808380818160808380818068EE
:100E500080831092C10008958093380108958F70A7
:100E6000909138019295990F990F907C982B9093BF
:100E70007C0080917A00806480937A0080917A006F
:100E800086FDFCCF2091780040917900942F80E07E
:100E900030E0282B392BC90108951F93CF93DF939E
:100EA000182FEB0161E00E94A107E12FF0E0EF5D58
:100EB000FE4F8491833051F480918000806880934C
:100EC0008000D0938900C093880037C0843051F4EB
:100ED00080918000806280938000D0938B00C093CB
:100EE0008A002BC0813029F484B5806884BDC7BDD9
:100EF00024C0823029F484B5806284BDC8BD1DC081
:100F0000863041F48091B00080688093B000C09337
:100F1000B30013C0873041F48091B00080628093A9
:100F2000B000C093B40009C0C038D10514F460E02B
:100F300001C061E0812F0E94BF07DF91CF911F9117
:100F40000895282F30E0C901835F9E4FFC019491E2
:100F500027503F4FF9018491882381F0E82FF0E07A
:100F6000E651FF4FE491F0E0662329F480819095EB
:100F70008923808308958081892B80830895482F59
:100F800050E0CA018F5D9E4FFC012491CA01835F2E
:100F90009E4FFC01949147505F4FFA0134913323E7
:100FA000C1F1222331F1233021F4809180008F7729
:100FB00005C0243031F4809180008F7D80938000C3
:100FC00018C0213019F484B58F7704C0223021F481
:100FD00084B58F7D84BD0DC0263021F48091B00092
:100FE0008F7705C0273029F48091B0008F7D8093E2
:100FF000B000E32FF0E0E151FF4FE491F0E0662311
:1010000029F4808190958923808308958081892B9C
:1010100080830895482F50E0CA018F5D9E4FFC01E8
:101020002491CA01835F9E4FFC01949147505F4F0A
:10103000FA013491332319F420E030E035C0222343
:1010400031F1233021F4809180008F7705C0243066
:1010500031F4809180008F7D8093800018C0213012
:1010600019F484B58F7704C0223021F484B58F7DC4
:1010700084BD0DC0263021F48091B0008F7705C06B
:10108000273029F48091B0008F7D8093B000E32F4A
:10109000F0E0EC50FF4FE491F0E0808120E030E0A0
:1010A000892311F021E030E0C9010895EF92FF9209
:1010B0000F931F937B018C0122E030E040E050E071
:1010C0000E941810205E3E45484F5F4FCA01B9018B
:1010D000A80197010E941810C901DA010197A1091E
:1010E000B109292F3A2F4B2F552747FD5A950196C5
:1010F000A11DB11D2093C50081508093C400E1EC77
:10110000F0E080818061808380818860808380813D
:10111000806880831F910F91FF90EF900895982F22
:101120008091C00085FFFCCF9093C6000895809108
:101130009A0290919B0280589F4F20919C0230917F
:101140009D02821B930B60E870E00E94E30F0895FC
:1011500040919C0250919D0280919A0290919B0235
:101160008417950719F42FEF3FEF0FC0FA01E256ED
:10117000FD4F2081CA01019660E870E00E94E30FF4
:1011800090939D0280939C0230E0C9010895809164
:101190009C0290919D0290939B0280939A020895E5
:1011A0001F920F920FB60F9211242F933F934F93DC
:1011B0005F936F937F938F939F93AF93BF93EF93BF
:1011C000FF934091C600E0919A02F0919B02CF01FB
:1011D000019660E870E00E94E30F9C0180919C0200
:1011E00090919D022817390739F0E256FD4F408350
:1011F00030939B0220939A02FF91EF91BF91AF91A0
:101200009F918F917F916F915F914F913F912F911E
:101210000F900FBE0F901F9018952F923F924F92F4
:101220005F926F927F928F929F92AF92BF92CF9276
:10123000DF92EF92FF920F931F93DF93CF93CDB77F
:10124000DEB73B014C0119012A016D897E898F8926
:10125000988D6A197B098C099D09621A730A840AA0
:10126000950AA40193010E94C40FE218F30804092F
:101270001509A80197010E9418102A0D3B1D4C1D4D
:101280005D1DB901CA01CF91DF911F910F91FF90B0
:10129000EF90DF90CF90BF90AF909F908F907F9016
:1012A0006F905F904F903F902F900895AF92BF92B4
:1012B000CF92DF92EF92FF920F931F935B016C012D
:1012C000611571058105910529F420E030E040E0C9
:1012D00050E01FC00E94080A7C010E94080A0027F3
:1012E000F7FC0095102F8701FF24EE24AA2797FD15
:1012F000A095BA2FE80EF91E0A1F1B1FC801B701DF
:10130000A60195010E941810AC01CB01DA019C01E5
:10131000AD01B901CA011F910F91FF90EF90DF90CD
:10132000CF90BF90AF900895EF92FF920F931F93CD
:101330007B018C01621773078407950764F4261BF1
:10134000370B480B590BCA01B9010E945609E60E2A
:10135000F71E081F191FB701C8011F910F91FF90B9
:10136000EF900895009711F00E940D0A0895A0E0F3
:10137000B0E0EDEBF9E00C945510EC01A880B980D9
:10138000CA80DB80A114B104C104D10441F484E219
:10139000A82E89EDB82E8BE5C82E87E0D82EC60181
:1013A000B5012DE133EF41E050E00E94181027EA2B
:1013B00031E440E050E00E94C40F7B018C01C60183
:1013C000B5012DE133EF41E050E00E941810CA0151
:1013D000B9012CEE34EF4FEF5FEF0E94C40F6E0D9A
:1013E0007F1D801F911F97FF04C061507040804097
:1013F0009048688379838A839B839B013F77C901E7
:10140000CDB7DEB7EAE00C9471100E94B7090895D9
:1014100089E391E00E94B7090895A0E0B0E08093CD
:10142000390190933A01A0933B01B0933C01089598
:10143000AEE0B0E0EEE1FAE00C945B100D891E899D
:1014400086E08C831A8309838FEF9FE79E838D83C9
:10145000CE014996AC016F89788DCE0101960E942C
:101460003B0A2F813885020F131FF80110822E9638
:10147000E4E00C947710ABE0B0E0E1E4FAE00C9427
:101480004D103C012B015A01FC0117821682838109
:1014900081FD03C06FEF7FEFC8C19AE0892E1E0166
:1014A0000894211C311CF3012381F20123FD859155
:1014B00023FF81912F01882309F4B4C1853239F4C7
:1014C00023FD859123FF81912F01853229F4B301FA
:1014D00090E00E94300CE7CF982FDD24CC24992493
:1014E000FFE1FD15D0F09B3269F09C3228F4903278
:1014F00059F0933291F40EC09D3249F0903369F463
:1015000041E024C052E0D52A84E0D82A28C098E0DF
:10151000D92A25C0E0E1DE2A22C0D7FC29C0892FC4
:1015200080538A3070F4D6FE05C0989C902C11240C
:10153000980E15C0C89CC02C1124C80EF0E2DF2AFA
:101540000EC09E3229F4D6FC6DC140E4D42A07C0F7
:101550009C3619F450E8D52A02C0983649F4F201B5
:1015600023FD959123FF91912F01992309F0B8CF85
:10157000892F8554833018F08052833038F444E04A
:1015800050E0A40EB51E5FE359830FC0933631F0CF
:10159000933779F0933509F056C020C0F50180816A
:1015A000898342E050E0A40EB51E710101E010E015
:1015B00012C0F501E080F180D6FC03C06FEF7FEF31
:1015C00002C0692D70E042E050E0A40EB51EC701D4
:1015D0000E94250C8C015FE7D52214C0F501E08044
:1015E000F180D6FC03C06FEF7FEF02C0692D70E081
:1015F00042E050E0A40EB51EC7010E941A0C8C01F7
:1016000050E8D52AD3FE07C01AC0B30180E290E0AB
:101610000E94300CCA948C2D90E008171907A8F38B
:101620000EC0F701D7FC8591D7FE81917F01B301F0
:1016300090E00E94300CC110CA9401501040011576
:10164000110579F7ECC0943611F0993671F5D7FE93
:1016500008C0F501E080F1800281138144E050E090
:101660000AC0F501808191817C010027F7FC00957B
:10167000102F42E050E0A40EB51E5FE6D52217FF02
:101680000AC010950095F094E094E11CF11C011D36
:10169000111D80E8D82A2AE030E0A101C801B70175
:1016A0000E945C0CF82EF21840C0953729F41D2DCD
:1016B0001F7E2AE030E01DC01D2D197F9F3661F08E
:1016C000903720F4983509F0ADC00FC0903739F04D
:1016D000983709F0A7C004C028E030E00AC01061C4
:1016E00014FD146020E130E004C014FD166020E118
:1016F00032E017FF08C0F50160817181828193811A
:1017000044E050E008C0F50180819181BC0180E097
:1017100090E042E050E0A40EB51EA1010E945C0CD6
:10172000F82EF2188FE7D82ED122D6FE0BC05EEF2E
:10173000D522F91438F4D4FE07C0D2FC05C08FEED0
:10174000D82202C01F2D01C0192DD4FE0DC0FE01EC
:10175000EF0DF11D8081803319F499EED92208C074
:101760001F5FD2FE05C003C08D2D867809F01F5F74
:101770000D2DD3FC14C0D0FE0FC01C1510F09F2CF3
:101780000BC09F2C9C0C911A1C2D06C0B30180E24B
:1017900090E00E94300C1F5F1C15C0F304C01C15A4
:1017A00010F4C11A01C0CC2404FF10C0B30180E3BF
:1017B00090E00E94300C02FF1EC001FD03C088E7CC
:1017C00090E002C088E590E0B3010CC0802F8678DD
:1017D00091F001FF02C08BE201C080E2D7FC8DE2F4
:1017E000B30190E00E94300C06C0B30180E390E0AA
:1017F0000E94300C9A94F914C0F3FA94F101EF0DA1
:10180000F11DB301808190E00E94300CFF20A9F708
:1018100006C0B30180E290E00E94300CCA94CC2054
:10182000C1F741CEF30166817781CB012B96E2E1CE
:101830000C946910FC010590615070400110D8F7BC
:10184000809590958E0F9F1F0895FC016150704008
:1018500001900110D8F7809590958E0F9F1F0895E5
:101860000F931F93CF93DF938C01EB018B8181FF4B
:101870001BC082FF0DC02E813F818C819D81281766
:10188000390764F4E881F9810193F983E88306C09C
:10189000E885F985802F0995892B31F48E819F8108
:1018A00001969F838E8302C00FEF1FEFC801DF9167
:1018B000CF911F910F910895FA01AA27283051F175
:1018C000203181F1E8946F936E7F6E5F7F4F8F4F71
:1018D0009F4FAF4FB1E03ED0B4E03CD0670F781FD0
:1018E000891F9A1FA11D680F791F8A1F911DA11DB5
:1018F0006A0F711D811D911DA11D20D009F46894EE
:101900003F912AE0269F11243019305D3193DEF695
:10191000CF010895462F4770405D4193B3E00FD04B
:10192000C9F7F6CF462F4F70405D4A3318F0495D36
:1019300031FD4052419302D0A9F7EACFB4E0A69519
:101940009795879577956795BA95C9F7009761053B
:10195000710508959B01AC010A2E06945795479591
:1019600037952795BA95C9F7620F731F841F951F86
:10197000A01D08955058BB27AA270ED0A3C194D10B
:1019800030F099D120F031F49F3F11F41EF464C17E
:101990000EF4E095E7FB5AC1E92FA5D180F3BA1701
:1019A000620773078407950718F071F49EF5BDC1AF
:1019B0000EF4E0950B2EBA2FA02D0B01B90190016A
:1019C0000C01CA01A0011124FF27591B99F0593FAE
:1019D00050F4503E68F11A16F040A22F232F342FF6
:1019E0004427585FF3CF469537952795A795F04044
:1019F0005395C9F77EF41F16BA0B620B730B840B59
:101A0000BAF09150A1F0FF0FBB1F661F771F881F10
:101A1000C2F70EC0BA0F621F731F841F48F4879568
:101A200077956795B795F7959E3F08F0B3CF939557
:101A3000880F08F09927EE0F9795879508950CD099
:101A400041C139D140F030D130F021F45F3F19F07D
:101A5000FDC051116BC100C146D198F39923C9F360
:101A60005523B1F3951B550BBB27AA2762177307A4
:101A7000840738F09F5F5F4F220F331F441FAA1F58
:101A8000A9F333D00E2E3AF0E0E830D09150504018
:101A9000E695001CCAF729D0FE2F27D0660F771FC6
:101AA000881FBB1F261737074807AB07B0E809F0A8
:101AB000BB0B802DBF01FF2793585F4F2AF09E3F3D
:101AC000510568F0C3C032C15F3FECF3983EDCF3D0
:101AD000869577956795B795F7959F5FC9F7880FB6
:101AE000911D9695879597F90895E1E0660F771F08
:101AF000881FBB1F621773078407BA0720F0621B99
:101B0000730B840BBA0BEE1F88F7E095089519F458
:101B10000EF09CC00AC1A0C0EED0C8F39638C0F742
:101B200007F80F92E8942BE33AEA48EB5FE7C7D156
:101B30000F920F920F924DB75EB70F927FD1E8E6EA
:101B4000F0E08DD04F915F91EF91FF91E595EE1F01
:101B5000FF1F49F0FE57E0684427EE0F441FFA9537
:101B6000E1F74195550BF1D00F9007FEE5C00895C0
:101B700004D06894B111DAC00895BDD088F09F57A1
:101B800090F0B92F9927B751A0F0D1F0660F771FC9
:101B9000881F991F1AF0BA95C9F712C0B13081F0A9
:101BA000C4D0B1E00895C1C0672F782F8827B85FEF
:101BB00039F0B93FCCF3869577956795B395D9F70A
:101BC0003EF490958095709561957F4F8F4F9F4F14
:101BD0000895E89409C097FB3EF490958095709520
:101BE00061957F4F8F4F9F4F9923A9F0F92F96E969
:101BF000BB279395F695879577956795B795F111DE
:101C0000F8CFFAF4BB0F11F460FF1BC06F5F7F4F7A
:101C10008F4F9F4F16C0882311F096E911C077238C
:101C200021F09EE8872F762F05C0662371F096E895
:101C3000862F70E060E02AF09A95660F771F881F64
:101C4000DAF7880F9695879597F9089597F99F6722
:101C500080E870E060E008959FEF80EC0895DF93E6
:101C6000CF931F930F93FF92EF92DF927B018C0132
:101C7000689405C0DA2EEF0120D1FE01E894A59109
:101C80002591359145915591AEF3EF0185DEFE0129
:101C90009701A801DA9479F7DF90EF90FF900F9108
:101CA0001F91CF91DF91089500240A94161617060C
:101CB00018060906089500240A941216130614063D
:101CC00005060895092E0394000C11F4882352F0A0
:101CD000BB0F40F4BF2B11F460FF04C06F5F7F4F58
:101CE0008F4F9F4F089557FD9058440F551F59F03F
:101CF0005F3F71F04795880F97FB991F61F09F3FF9
:101D000079F087950895121613061406551FF2CF21
:101D10004695F1DF08C0161617061806991FF1CF71
:101D200086957105610508940895E894BB27662798
:101D30007727CB0197F908959B01AC0160E070E033
:101D400080E89FE37CCE82CF0FC1D5DFE8F39923F3
:101D5000D9F3940F511DBBF39150504094F059F0BA
:101D6000882332F0660F771F881F91505040C1F7CB
:101D70009E3F510544F7880F911D9695879597F9D9
:101D800008955F3FACF0983E9CF0BB278695779511
:101D90006795B79508F4B1609395C1F7BB0F58F7F5
:101DA00011F460FFE8CF6F5F7F4F8F4F9F4FE3CFFE
:101DB000BDCF0EF0D9C050CF689448CF9CDFC8F398
:101DC0009923D1F3C6F3DF93CF931F930F93FF9221
:101DD000C92FDD2788232AF02197660F771F881FD8
:101DE000DAF720E030E040E85FEB9FE3883920F04D
:101DF000803E30F021968F77BEDDE0E9F0E003C051
:101E0000BADDEDEBF0E02BDF8B01BE01EC01FB2E28
:101E10006F5771097595771F880B990BDCDE28E1E8
:101E200032E741E35FE349D0AF2D9801AE01FF9067
:101E30000F911F91CF91DF91AFDD44CFFA01DC010B
:101E4000AA0FBB1F9B01AC01BF5728F422273327E1
:101E5000442750781FC0B75188F4AB2F0024469513
:101E600037952795011CA395D2F3002069F0220F26
:101E7000331F441FB395DAF30DD07CCD613071056B
:101E8000A0E88A07B94630F49B01AC0166277727A2
:101E900088279078309621F02083318342835383C2
:101EA00008950BD00FCF00DF28F005DF18F0952341
:101EB00009F0CCCED1CE112439CF15DFA0F3959FF8
:101EC000D1F3950F50E0551F629FF001729FBB2721
:101ED000F00DB11D639FAA27F00DB11DAA1F649FCD
:101EE0006627B00DA11D661F829F2227B00DA11D80
:101EF000621F739FB00DA11D621F839FA00D611D06
:101F0000221F749F3327A00D611D231F849F600D26
:101F1000211D822F762F6A2F11249F5750408AF05F
:101F2000E1F088234AF0EE0FFF1FBB1F661F771FEB
:101F3000881F91505040A9F79E3F510570F086CE02
:101F4000F5CE5F3FECF3983EDCF386957795679589
:101F5000B795F795E7959F5FC1F7FE2B880F911D09
:101F60009695879597F908959F3F49F0915028F4E9
:101F7000869577956795B7959F5F80389F4F880FB7
:101F80009695879597F90895629FD001739FF00108
:101F9000829FE00DF11D649FE00DF11D929FF00DF9
:101FA000839FF00D749FF00D659FF00D9927729F30
:101FB000B00DE11DF91F639FB00DE11DF91FBD01BB
:101FC000CF011124089597FB092E07260AD077FD2B
:101FD00004D049D006D000201AF4709561957F4F47
:101FE0000895F6F7909581959F4F0895A1E21A2ED6
:101FF000AA1BBB1BFD010DC0AA1FBB1FEE1FFF1FAD
:10200000A217B307E407F50720F0A21BB30BE40BFC
:10201000F50B661F771F881F991F1A9469F7609543
:102020007095809590959B01AC01BD01CF010895FD
:1020300097FB092E05260ED057FD04D0D7DF0AD016
:10204000001C38F450954095309521953F4F4F4FE7
:102050005F4F0895F6F790958095709561957F4F45
:102060008F4F9F4F0895AA1BBB1B51E107C0AA1FAA
:10207000BB1FA617B70710F0A61BB70B881F991F29
:102080005A95A9F780959095BC01CD010895EE0F62
:10209000FF1F0590F491E02D09942F923F924F92EB
:1020A0005F926F927F928F929F92AF92BF92CF92E8
:1020B000DF92EF92FF920F931F93CF93DF93CDB7F1
:1020C000DEB7CA1BDB0B0FB6F894DEBF0FBECDBF69
:1020D00009942A88398848885F846E847D848C843A
:1020E0009B84AA84B984C884DF80EE80FD800C8143
:1020F0001B81AA81B981CE0FD11D0FB6F894DEBF26
:0C2100000FBECDBFED010895F894FFCF95
:10210C002C25732C25642E25642C646567726565FB
:10211C007320432C006E617468616E00150101011F
:10212C00010000401C4600E076450000954300008D
:0E213C007A4400000000AE0401010000000023
:0400000500800277FE
:00000001FF
